{
	"loops.sol": {
		"Blocktrain": {
			"abi": [
				{
					"inputs": [
						{
							"internalType": "uint256",
							"name": "_num",
							"type": "uint256"
						}
					],
					"name": "add",
					"outputs": [],
					"stateMutability": "nonpayable",
					"type": "function"
				},
				{
					"inputs": [
						{
							"internalType": "string[]",
							"name": "_names",
							"type": "string[]"
						}
					],
					"name": "addNames",
					"outputs": [],
					"stateMutability": "nonpayable",
					"type": "function"
				},
				{
					"inputs": [],
					"name": "break_check",
					"outputs": [],
					"stateMutability": "nonpayable",
					"type": "function"
				},
				{
					"inputs": [],
					"name": "coins",
					"outputs": [
						{
							"internalType": "uint256",
							"name": "",
							"type": "uint256"
						}
					],
					"stateMutability": "view",
					"type": "function"
				},
				{
					"inputs": [
						{
							"internalType": "uint256",
							"name": "_num",
							"type": "uint256"
						}
					],
					"name": "letsBreak",
					"outputs": [],
					"stateMutability": "nonpayable",
					"type": "function"
				},
				{
					"inputs": [
						{
							"internalType": "uint256",
							"name": "",
							"type": "uint256"
						}
					],
					"name": "students",
					"outputs": [
						{
							"internalType": "string",
							"name": "",
							"type": "string"
						}
					],
					"stateMutability": "view",
					"type": "function"
				}
			],
			"devdoc": {
				"kind": "dev",
				"methods": {},
				"version": 1
			},
			"evm": {
				"assembly": "    /* \"loops.sol\":109:933  contract Blocktrain{... */\n  mstore(0x40, 0x80)\n    /* \"loops.sol\":787:788  0 */\n  0x00\n    /* \"loops.sol\":764:788  uint256 public coins = 0 */\n  0x01\n  sstore\n    /* \"loops.sol\":109:933  contract Blocktrain{... */\n  callvalue\n  dup1\n  iszero\n  tag_1\n  jumpi\n  0x00\n  dup1\n  revert\ntag_1:\n  pop\n  dataSize(sub_0)\n  dup1\n  dataOffset(sub_0)\n  0x00\n  codecopy\n  0x00\n  return\nstop\n\nsub_0: assembly {\n        /* \"loops.sol\":109:933  contract Blocktrain{... */\n      mstore(0x40, 0x80)\n      callvalue\n      dup1\n      iszero\n      tag_1\n      jumpi\n      0x00\n      dup1\n      revert\n    tag_1:\n      pop\n      jumpi(tag_2, lt(calldatasize, 0x04))\n      shr(0xe0, calldataload(0x00))\n      dup1\n      0x06ead22e\n      eq\n      tag_3\n      jumpi\n      dup1\n      0x1003e2d2\n      eq\n      tag_4\n      jumpi\n      dup1\n      0x22fcefbe\n      eq\n      tag_5\n      jumpi\n      dup1\n      0x4e303c60\n      eq\n      tag_6\n      jumpi\n      dup1\n      0xdfc262c9\n      eq\n      tag_7\n      jumpi\n      dup1\n      0xe308ae72\n      eq\n      tag_8\n      jumpi\n    tag_2:\n      0x00\n      dup1\n      revert\n        /* \"loops.sol\":135:178  mapping (uint256 => string) public students */\n    tag_3:\n      tag_9\n      0x04\n      dup1\n      calldatasize\n      sub\n      dup2\n      add\n      swap1\n      tag_10\n      swap2\n      swap1\n      tag_11\n      jump\t// in\n    tag_10:\n      tag_12\n      jump\t// in\n    tag_9:\n      mload(0x40)\n      tag_13\n      swap2\n      swap1\n      tag_14\n      jump\t// in\n    tag_13:\n      mload(0x40)\n      dup1\n      swap2\n      sub\n      swap1\n      return\n        /* \"loops.sol\":229:364  function add(uint256 _num) public{... */\n    tag_4:\n      tag_15\n      0x04\n      dup1\n      calldatasize\n      sub\n      dup2\n      add\n      swap1\n      tag_16\n      swap2\n      swap1\n      tag_11\n      jump\t// in\n    tag_16:\n      tag_17\n      jump\t// in\n    tag_15:\n      stop\n        /* \"loops.sol\":764:788  uint256 public coins = 0 */\n    tag_5:\n      tag_18\n      tag_19\n      jump\t// in\n    tag_18:\n      mload(0x40)\n      tag_20\n      swap2\n      swap1\n      tag_21\n      jump\t// in\n    tag_20:\n      mload(0x40)\n      dup1\n      swap2\n      sub\n      swap1\n      return\n        /* \"loops.sol\":394:576  function addNames(string [] memory _names) public {... */\n    tag_6:\n      tag_22\n      0x04\n      dup1\n      calldatasize\n      sub\n      dup2\n      add\n      swap1\n      tag_23\n      swap2\n      swap1\n      tag_24\n      jump\t// in\n    tag_23:\n      tag_25\n      jump\t// in\n    tag_22:\n      stop\n        /* \"loops.sol\":795:928  function break_check() public{... */\n    tag_7:\n      tag_26\n      tag_27\n      jump\t// in\n    tag_26:\n      stop\n        /* \"loops.sol\":609:733  function letsBreak(uint256 _num) public{... */\n    tag_8:\n      tag_28\n      0x04\n      dup1\n      calldatasize\n      sub\n      dup2\n      add\n      swap1\n      tag_29\n      swap2\n      swap1\n      tag_11\n      jump\t// in\n    tag_29:\n      tag_30\n      jump\t// in\n    tag_28:\n      stop\n        /* \"loops.sol\":135:178  mapping (uint256 => string) public students */\n    tag_12:\n      mstore(0x20, 0x00)\n      dup1\n      0x00\n      mstore\n      keccak256(0x00, 0x40)\n      0x00\n      swap2\n      pop\n      swap1\n      pop\n      dup1\n      sload\n      tag_31\n      swap1\n      tag_32\n      jump\t// in\n    tag_31:\n      dup1\n      0x1f\n      add\n      0x20\n      dup1\n      swap2\n      div\n      mul\n      0x20\n      add\n      mload(0x40)\n      swap1\n      dup2\n      add\n      0x40\n      mstore\n      dup1\n      swap3\n      swap2\n      swap1\n      dup2\n      dup2\n      mstore\n      0x20\n      add\n      dup3\n      dup1\n      sload\n      tag_33\n      swap1\n      tag_32\n      jump\t// in\n    tag_33:\n      dup1\n      iszero\n      tag_34\n      jumpi\n      dup1\n      0x1f\n      lt\n      tag_35\n      jumpi\n      0x0100\n      dup1\n      dup4\n      sload\n      div\n      mul\n      dup4\n      mstore\n      swap2\n      0x20\n      add\n      swap2\n      jump(tag_34)\n    tag_35:\n      dup3\n      add\n      swap2\n      swap1\n      0x00\n      mstore\n      keccak256(0x00, 0x20)\n      swap1\n    tag_36:\n      dup2\n      sload\n      dup2\n      mstore\n      swap1\n      0x01\n      add\n      swap1\n      0x20\n      add\n      dup1\n      dup4\n      gt\n      tag_36\n      jumpi\n      dup3\n      swap1\n      sub\n      0x1f\n      and\n      dup3\n      add\n      swap2\n    tag_34:\n      pop\n      pop\n      pop\n      pop\n      pop\n      dup2\n      jump\t// out\n        /* \"loops.sol\":229:364  function add(uint256 _num) public{... */\n    tag_17:\n        /* \"loops.sol\":277:286  uint256 i */\n      0x00\n        /* \"loops.sol\":273:357  for(uint256 i=0; i<_num; i++){... */\n    tag_38:\n        /* \"loops.sol\":292:296  _num */\n      dup2\n        /* \"loops.sol\":290:291  i */\n      dup2\n        /* \"loops.sol\":290:296  i<_num */\n      lt\n        /* \"loops.sol\":273:357  for(uint256 i=0; i<_num; i++){... */\n      iszero\n      tag_39\n      jumpi\n        /* \"loops.sol\":317:345  students[i] = \"TUSHAR SINGH\" */\n      mload(0x40)\n      dup1\n      0x40\n      add\n      0x40\n      mstore\n      dup1\n      0x0c\n      dup2\n      mstore\n      0x20\n      add\n      0x5455534841522053494e47480000000000000000000000000000000000000000\n      dup2\n      mstore\n      pop\n        /* \"loops.sol\":317:325  students */\n      0x00\n        /* \"loops.sol\":317:328  students[i] */\n      dup1\n        /* \"loops.sol\":326:327  i */\n      dup4\n        /* \"loops.sol\":317:328  students[i] */\n      dup2\n      mstore\n      0x20\n      add\n      swap1\n      dup2\n      mstore\n      0x20\n      add\n      0x00\n      keccak256\n        /* \"loops.sol\":317:345  students[i] = \"TUSHAR SINGH\" */\n      swap1\n      dup2\n      tag_41\n      swap2\n      swap1\n      tag_42\n      jump\t// in\n    tag_41:\n      pop\n        /* \"loops.sol\":298:301  i++ */\n      dup1\n      dup1\n      0x01\n      add\n      swap2\n      pop\n      pop\n        /* \"loops.sol\":273:357  for(uint256 i=0; i<_num; i++){... */\n      jump(tag_38)\n    tag_39:\n      pop\n        /* \"loops.sol\":229:364  function add(uint256 _num) public{... */\n      pop\n      jump\t// out\n        /* \"loops.sol\":764:788  uint256 public coins = 0 */\n    tag_19:\n      sload(0x01)\n      dup2\n      jump\t// out\n        /* \"loops.sol\":394:576  function addNames(string [] memory _names) public {... */\n    tag_25:\n        /* \"loops.sol\":455:464  uint256 i */\n      0x00\n        /* \"loops.sol\":477:567  while(i<_names.length){... */\n    tag_44:\n        /* \"loops.sol\":485:491  _names */\n      dup2\n        /* \"loops.sol\":485:498  _names.length */\n      mload\n        /* \"loops.sol\":483:484  i */\n      dup2\n        /* \"loops.sol\":483:498  i<_names.length */\n      lt\n        /* \"loops.sol\":477:567  while(i<_names.length){... */\n      iszero\n      tag_45\n      jumpi\n        /* \"loops.sol\":528:534  _names */\n      dup2\n        /* \"loops.sol\":535:536  i */\n      dup2\n        /* \"loops.sol\":528:537  _names[i] */\n      dup2\n      mload\n      dup2\n      lt\n      tag_46\n      jumpi\n      tag_47\n      tag_48\n      jump\t// in\n    tag_47:\n    tag_46:\n      0x20\n      mul\n      0x20\n      add\n      add\n      mload\n        /* \"loops.sol\":514:522  students */\n      0x00\n        /* \"loops.sol\":514:525  students[i] */\n      dup1\n        /* \"loops.sol\":523:524  i */\n      dup4\n        /* \"loops.sol\":514:525  students[i] */\n      dup2\n      mstore\n      0x20\n      add\n      swap1\n      dup2\n      mstore\n      0x20\n      add\n      0x00\n      keccak256\n        /* \"loops.sol\":514:537  students[i] = _names[i] */\n      swap1\n      dup2\n      tag_49\n      swap2\n      swap1\n      tag_42\n      jump\t// in\n    tag_49:\n      pop\n        /* \"loops.sol\":552:555  i++ */\n      dup1\n      dup1\n      tag_50\n      swap1\n      tag_51\n      jump\t// in\n    tag_50:\n      swap2\n      pop\n      pop\n        /* \"loops.sol\":477:567  while(i<_names.length){... */\n      jump(tag_44)\n    tag_45:\n        /* \"loops.sol\":444:576  {... */\n      pop\n        /* \"loops.sol\":394:576  function addNames(string [] memory _names) public {... */\n      pop\n      jump\t// out\n        /* \"loops.sol\":795:928  function break_check() public{... */\n    tag_27:\n        /* \"loops.sol\":839:844  int i */\n      0x00\n        /* \"loops.sol\":835:921  for(int i=0; i<10; i++){... */\n    tag_53:\n        /* \"loops.sol\":850:852  10 */\n      0x0a\n        /* \"loops.sol\":848:849  i */\n      dup2\n        /* \"loops.sol\":848:852  i<10 */\n      slt\n        /* \"loops.sol\":835:921  for(int i=0; i<10; i++){... */\n      iszero\n      tag_54\n      jumpi\n        /* \"loops.sol\":879:880  5 */\n      0x05\n        /* \"loops.sol\":876:877  i */\n      dup2\n        /* \"loops.sol\":876:880  i==5 */\n      sub\n        /* \"loops.sol\":873:887  if(i==5) break */\n      iszero\n        /* \"loops.sol\":882:887  break */\n      tag_54\n        /* \"loops.sol\":873:887  if(i==5) break */\n      jumpi\n        /* \"loops.sol\":902:907  coins */\n      0x01\n      0x00\n        /* \"loops.sol\":902:909  coins++ */\n      dup2\n      sload\n      dup1\n      swap3\n      swap2\n      swap1\n      tag_57\n      swap1\n      tag_51\n      jump\t// in\n    tag_57:\n      swap2\n      swap1\n      pop\n      sstore\n      pop\n        /* \"loops.sol\":854:857  i++ */\n      dup1\n      dup1\n      0x01\n      add\n      swap2\n      pop\n      pop\n        /* \"loops.sol\":835:921  for(int i=0; i<10; i++){... */\n      jump(tag_53)\n    tag_54:\n      pop\n        /* \"loops.sol\":795:928  function break_check() public{... */\n      jump\t// out\n        /* \"loops.sol\":609:733  function letsBreak(uint256 _num) public{... */\n    tag_30:\n        /* \"loops.sol\":659:726  do{... */\n    tag_59:\n        /* \"loops.sol\":676:698  students[0] = \"TUSHAR\" */\n      mload(0x40)\n      dup1\n      0x40\n      add\n      0x40\n      mstore\n      dup1\n      0x06\n      dup2\n      mstore\n      0x20\n      add\n      0x5455534841520000000000000000000000000000000000000000000000000000\n      dup2\n      mstore\n      pop\n        /* \"loops.sol\":676:684  students */\n      0x00\n        /* \"loops.sol\":676:687  students[0] */\n      dup1\n        /* \"loops.sol\":685:686  0 */\n      dup1\n        /* \"loops.sol\":676:687  students[0] */\n      dup2\n      mstore\n      0x20\n      add\n      swap1\n      dup2\n      mstore\n      0x20\n      add\n      0x00\n      keccak256\n        /* \"loops.sol\":676:698  students[0] = \"TUSHAR\" */\n      swap1\n      dup2\n      tag_62\n      swap2\n      swap1\n      tag_42\n      jump\t// in\n    tag_62:\n      pop\n        /* \"loops.sol\":723:724  0 */\n      0x00\n        /* \"loops.sol\":716:720  _num */\n      dup2\n        /* \"loops.sol\":716:724  _num < 0 */\n      lt\n        /* \"loops.sol\":659:726  do{... */\n      tag_59\n      jumpi\n        /* \"loops.sol\":609:733  function letsBreak(uint256 _num) public{... */\n      pop\n      jump\t// out\n        /* \"#utility.yul\":7:82   */\n    tag_63:\n        /* \"#utility.yul\":40:46   */\n      0x00\n        /* \"#utility.yul\":73:75   */\n      0x40\n        /* \"#utility.yul\":67:76   */\n      mload\n        /* \"#utility.yul\":57:76   */\n      swap1\n      pop\n        /* \"#utility.yul\":7:82   */\n      swap1\n      jump\t// out\n        /* \"#utility.yul\":88:205   */\n    tag_64:\n        /* \"#utility.yul\":197:198   */\n      0x00\n        /* \"#utility.yul\":194:195   */\n      dup1\n        /* \"#utility.yul\":187:199   */\n      revert\n        /* \"#utility.yul\":211:328   */\n    tag_65:\n        /* \"#utility.yul\":320:321   */\n      0x00\n        /* \"#utility.yul\":317:318   */\n      dup1\n        /* \"#utility.yul\":310:322   */\n      revert\n        /* \"#utility.yul\":334:411   */\n    tag_66:\n        /* \"#utility.yul\":371:378   */\n      0x00\n        /* \"#utility.yul\":400:405   */\n      dup2\n        /* \"#utility.yul\":389:405   */\n      swap1\n      pop\n        /* \"#utility.yul\":334:411   */\n      swap2\n      swap1\n      pop\n      jump\t// out\n        /* \"#utility.yul\":417:539   */\n    tag_67:\n        /* \"#utility.yul\":490:514   */\n      tag_111\n        /* \"#utility.yul\":508:513   */\n      dup2\n        /* \"#utility.yul\":490:514   */\n      tag_66\n      jump\t// in\n    tag_111:\n        /* \"#utility.yul\":483:488   */\n      dup2\n        /* \"#utility.yul\":480:515   */\n      eq\n        /* \"#utility.yul\":470:533   */\n      tag_112\n      jumpi\n        /* \"#utility.yul\":529:530   */\n      0x00\n        /* \"#utility.yul\":526:527   */\n      dup1\n        /* \"#utility.yul\":519:531   */\n      revert\n        /* \"#utility.yul\":470:533   */\n    tag_112:\n        /* \"#utility.yul\":417:539   */\n      pop\n      jump\t// out\n        /* \"#utility.yul\":545:684   */\n    tag_68:\n        /* \"#utility.yul\":591:596   */\n      0x00\n        /* \"#utility.yul\":629:635   */\n      dup2\n        /* \"#utility.yul\":616:636   */\n      calldataload\n        /* \"#utility.yul\":607:636   */\n      swap1\n      pop\n        /* \"#utility.yul\":645:678   */\n      tag_114\n        /* \"#utility.yul\":672:677   */\n      dup2\n        /* \"#utility.yul\":645:678   */\n      tag_67\n      jump\t// in\n    tag_114:\n        /* \"#utility.yul\":545:684   */\n      swap3\n      swap2\n      pop\n      pop\n      jump\t// out\n        /* \"#utility.yul\":690:1019   */\n    tag_11:\n        /* \"#utility.yul\":749:755   */\n      0x00\n        /* \"#utility.yul\":798:800   */\n      0x20\n        /* \"#utility.yul\":786:795   */\n      dup3\n        /* \"#utility.yul\":777:784   */\n      dup5\n        /* \"#utility.yul\":773:796   */\n      sub\n        /* \"#utility.yul\":769:801   */\n      slt\n        /* \"#utility.yul\":766:885   */\n      iszero\n      tag_116\n      jumpi\n        /* \"#utility.yul\":804:883   */\n      tag_117\n      tag_64\n      jump\t// in\n    tag_117:\n        /* \"#utility.yul\":766:885   */\n    tag_116:\n        /* \"#utility.yul\":924:925   */\n      0x00\n        /* \"#utility.yul\":949:1002   */\n      tag_118\n        /* \"#utility.yul\":994:1001   */\n      dup5\n        /* \"#utility.yul\":985:991   */\n      dup3\n        /* \"#utility.yul\":974:983   */\n      dup6\n        /* \"#utility.yul\":970:992   */\n      add\n        /* \"#utility.yul\":949:1002   */\n      tag_68\n      jump\t// in\n    tag_118:\n        /* \"#utility.yul\":939:1002   */\n      swap2\n      pop\n        /* \"#utility.yul\":895:1012   */\n      pop\n        /* \"#utility.yul\":690:1019   */\n      swap3\n      swap2\n      pop\n      pop\n      jump\t// out\n        /* \"#utility.yul\":1025:1124   */\n    tag_69:\n        /* \"#utility.yul\":1077:1083   */\n      0x00\n        /* \"#utility.yul\":1111:1116   */\n      dup2\n        /* \"#utility.yul\":1105:1117   */\n      mload\n        /* \"#utility.yul\":1095:1117   */\n      swap1\n      pop\n        /* \"#utility.yul\":1025:1124   */\n      swap2\n      swap1\n      pop\n      jump\t// out\n        /* \"#utility.yul\":1130:1299   */\n    tag_70:\n        /* \"#utility.yul\":1214:1225   */\n      0x00\n        /* \"#utility.yul\":1248:1254   */\n      dup3\n        /* \"#utility.yul\":1243:1246   */\n      dup3\n        /* \"#utility.yul\":1236:1255   */\n      mstore\n        /* \"#utility.yul\":1288:1292   */\n      0x20\n        /* \"#utility.yul\":1283:1286   */\n      dup3\n        /* \"#utility.yul\":1279:1293   */\n      add\n        /* \"#utility.yul\":1264:1293   */\n      swap1\n      pop\n        /* \"#utility.yul\":1130:1299   */\n      swap3\n      swap2\n      pop\n      pop\n      jump\t// out\n        /* \"#utility.yul\":1305:1444   */\n    tag_71:\n        /* \"#utility.yul\":1394:1400   */\n      dup3\n        /* \"#utility.yul\":1389:1392   */\n      dup2\n        /* \"#utility.yul\":1384:1387   */\n      dup4\n        /* \"#utility.yul\":1378:1401   */\n      mcopy\n        /* \"#utility.yul\":1435:1436   */\n      0x00\n        /* \"#utility.yul\":1426:1432   */\n      dup4\n        /* \"#utility.yul\":1421:1424   */\n      dup4\n        /* \"#utility.yul\":1417:1433   */\n      add\n        /* \"#utility.yul\":1410:1437   */\n      mstore\n        /* \"#utility.yul\":1305:1444   */\n      pop\n      pop\n      pop\n      jump\t// out\n        /* \"#utility.yul\":1450:1552   */\n    tag_72:\n        /* \"#utility.yul\":1491:1497   */\n      0x00\n        /* \"#utility.yul\":1542:1544   */\n      0x1f\n        /* \"#utility.yul\":1538:1545   */\n      not\n        /* \"#utility.yul\":1533:1535   */\n      0x1f\n        /* \"#utility.yul\":1526:1531   */\n      dup4\n        /* \"#utility.yul\":1522:1536   */\n      add\n        /* \"#utility.yul\":1518:1546   */\n      and\n        /* \"#utility.yul\":1508:1546   */\n      swap1\n      pop\n        /* \"#utility.yul\":1450:1552   */\n      swap2\n      swap1\n      pop\n      jump\t// out\n        /* \"#utility.yul\":1558:1935   */\n    tag_73:\n        /* \"#utility.yul\":1646:1649   */\n      0x00\n        /* \"#utility.yul\":1674:1713   */\n      tag_124\n        /* \"#utility.yul\":1707:1712   */\n      dup3\n        /* \"#utility.yul\":1674:1713   */\n      tag_69\n      jump\t// in\n    tag_124:\n        /* \"#utility.yul\":1729:1800   */\n      tag_125\n        /* \"#utility.yul\":1793:1799   */\n      dup2\n        /* \"#utility.yul\":1788:1791   */\n      dup6\n        /* \"#utility.yul\":1729:1800   */\n      tag_70\n      jump\t// in\n    tag_125:\n        /* \"#utility.yul\":1722:1800   */\n      swap4\n      pop\n        /* \"#utility.yul\":1809:1874   */\n      tag_126\n        /* \"#utility.yul\":1867:1873   */\n      dup2\n        /* \"#utility.yul\":1862:1865   */\n      dup6\n        /* \"#utility.yul\":1855:1859   */\n      0x20\n        /* \"#utility.yul\":1848:1853   */\n      dup7\n        /* \"#utility.yul\":1844:1860   */\n      add\n        /* \"#utility.yul\":1809:1874   */\n      tag_71\n      jump\t// in\n    tag_126:\n        /* \"#utility.yul\":1899:1928   */\n      tag_127\n        /* \"#utility.yul\":1921:1927   */\n      dup2\n        /* \"#utility.yul\":1899:1928   */\n      tag_72\n      jump\t// in\n    tag_127:\n        /* \"#utility.yul\":1894:1897   */\n      dup5\n        /* \"#utility.yul\":1890:1929   */\n      add\n        /* \"#utility.yul\":1883:1929   */\n      swap2\n      pop\n        /* \"#utility.yul\":1650:1935   */\n      pop\n        /* \"#utility.yul\":1558:1935   */\n      swap3\n      swap2\n      pop\n      pop\n      jump\t// out\n        /* \"#utility.yul\":1941:2254   */\n    tag_14:\n        /* \"#utility.yul\":2054:2058   */\n      0x00\n        /* \"#utility.yul\":2092:2094   */\n      0x20\n        /* \"#utility.yul\":2081:2090   */\n      dup3\n        /* \"#utility.yul\":2077:2095   */\n      add\n        /* \"#utility.yul\":2069:2095   */\n      swap1\n      pop\n        /* \"#utility.yul\":2141:2150   */\n      dup2\n        /* \"#utility.yul\":2135:2139   */\n      dup2\n        /* \"#utility.yul\":2131:2151   */\n      sub\n        /* \"#utility.yul\":2127:2128   */\n      0x00\n        /* \"#utility.yul\":2116:2125   */\n      dup4\n        /* \"#utility.yul\":2112:2129   */\n      add\n        /* \"#utility.yul\":2105:2152   */\n      mstore\n        /* \"#utility.yul\":2169:2247   */\n      tag_129\n        /* \"#utility.yul\":2242:2246   */\n      dup2\n        /* \"#utility.yul\":2233:2239   */\n      dup5\n        /* \"#utility.yul\":2169:2247   */\n      tag_73\n      jump\t// in\n    tag_129:\n        /* \"#utility.yul\":2161:2247   */\n      swap1\n      pop\n        /* \"#utility.yul\":1941:2254   */\n      swap3\n      swap2\n      pop\n      pop\n      jump\t// out\n        /* \"#utility.yul\":2260:2378   */\n    tag_74:\n        /* \"#utility.yul\":2347:2371   */\n      tag_131\n        /* \"#utility.yul\":2365:2370   */\n      dup2\n        /* \"#utility.yul\":2347:2371   */\n      tag_66\n      jump\t// in\n    tag_131:\n        /* \"#utility.yul\":2342:2345   */\n      dup3\n        /* \"#utility.yul\":2335:2372   */\n      mstore\n        /* \"#utility.yul\":2260:2378   */\n      pop\n      pop\n      jump\t// out\n        /* \"#utility.yul\":2384:2606   */\n    tag_21:\n        /* \"#utility.yul\":2477:2481   */\n      0x00\n        /* \"#utility.yul\":2515:2517   */\n      0x20\n        /* \"#utility.yul\":2504:2513   */\n      dup3\n        /* \"#utility.yul\":2500:2518   */\n      add\n        /* \"#utility.yul\":2492:2518   */\n      swap1\n      pop\n        /* \"#utility.yul\":2528:2599   */\n      tag_133\n        /* \"#utility.yul\":2596:2597   */\n      0x00\n        /* \"#utility.yul\":2585:2594   */\n      dup4\n        /* \"#utility.yul\":2581:2598   */\n      add\n        /* \"#utility.yul\":2572:2578   */\n      dup5\n        /* \"#utility.yul\":2528:2599   */\n      tag_74\n      jump\t// in\n    tag_133:\n        /* \"#utility.yul\":2384:2606   */\n      swap3\n      swap2\n      pop\n      pop\n      jump\t// out\n        /* \"#utility.yul\":2612:2729   */\n    tag_75:\n        /* \"#utility.yul\":2721:2722   */\n      0x00\n        /* \"#utility.yul\":2718:2719   */\n      dup1\n        /* \"#utility.yul\":2711:2723   */\n      revert\n        /* \"#utility.yul\":2735:2915   */\n    tag_76:\n        /* \"#utility.yul\":2783:2860   */\n      0x4e487b7100000000000000000000000000000000000000000000000000000000\n        /* \"#utility.yul\":2780:2781   */\n      0x00\n        /* \"#utility.yul\":2773:2861   */\n      mstore\n        /* \"#utility.yul\":2880:2884   */\n      0x41\n        /* \"#utility.yul\":2877:2878   */\n      0x04\n        /* \"#utility.yul\":2870:2885   */\n      mstore\n        /* \"#utility.yul\":2904:2908   */\n      0x24\n        /* \"#utility.yul\":2901:2902   */\n      0x00\n        /* \"#utility.yul\":2894:2909   */\n      revert\n        /* \"#utility.yul\":2921:3202   */\n    tag_77:\n        /* \"#utility.yul\":3004:3031   */\n      tag_137\n        /* \"#utility.yul\":3026:3030   */\n      dup3\n        /* \"#utility.yul\":3004:3031   */\n      tag_72\n      jump\t// in\n    tag_137:\n        /* \"#utility.yul\":2996:3002   */\n      dup2\n        /* \"#utility.yul\":2992:3032   */\n      add\n        /* \"#utility.yul\":3134:3140   */\n      dup2\n        /* \"#utility.yul\":3122:3132   */\n      dup2\n        /* \"#utility.yul\":3119:3141   */\n      lt\n        /* \"#utility.yul\":3098:3116   */\n      0xffffffffffffffff\n        /* \"#utility.yul\":3086:3096   */\n      dup3\n        /* \"#utility.yul\":3083:3117   */\n      gt\n        /* \"#utility.yul\":3080:3142   */\n      or\n        /* \"#utility.yul\":3077:3165   */\n      iszero\n      tag_138\n      jumpi\n        /* \"#utility.yul\":3145:3163   */\n      tag_139\n      tag_76\n      jump\t// in\n    tag_139:\n        /* \"#utility.yul\":3077:3165   */\n    tag_138:\n        /* \"#utility.yul\":3185:3195   */\n      dup1\n        /* \"#utility.yul\":3181:3183   */\n      0x40\n        /* \"#utility.yul\":3174:3196   */\n      mstore\n        /* \"#utility.yul\":2964:3202   */\n      pop\n        /* \"#utility.yul\":2921:3202   */\n      pop\n      pop\n      jump\t// out\n        /* \"#utility.yul\":3208:3337   */\n    tag_78:\n        /* \"#utility.yul\":3242:3248   */\n      0x00\n        /* \"#utility.yul\":3269:3289   */\n      tag_141\n      tag_63\n      jump\t// in\n    tag_141:\n        /* \"#utility.yul\":3259:3289   */\n      swap1\n      pop\n        /* \"#utility.yul\":3298:3331   */\n      tag_142\n        /* \"#utility.yul\":3326:3330   */\n      dup3\n        /* \"#utility.yul\":3318:3324   */\n      dup3\n        /* \"#utility.yul\":3298:3331   */\n      tag_77\n      jump\t// in\n    tag_142:\n        /* \"#utility.yul\":3208:3337   */\n      swap2\n      swap1\n      pop\n      jump\t// out\n        /* \"#utility.yul\":3343:3664   */\n    tag_79:\n        /* \"#utility.yul\":3430:3434   */\n      0x00\n        /* \"#utility.yul\":3520:3538   */\n      0xffffffffffffffff\n        /* \"#utility.yul\":3512:3518   */\n      dup3\n        /* \"#utility.yul\":3509:3539   */\n      gt\n        /* \"#utility.yul\":3506:3562   */\n      iszero\n      tag_144\n      jumpi\n        /* \"#utility.yul\":3542:3560   */\n      tag_145\n      tag_76\n      jump\t// in\n    tag_145:\n        /* \"#utility.yul\":3506:3562   */\n    tag_144:\n        /* \"#utility.yul\":3592:3596   */\n      0x20\n        /* \"#utility.yul\":3584:3590   */\n      dup3\n        /* \"#utility.yul\":3580:3597   */\n      mul\n        /* \"#utility.yul\":3572:3597   */\n      swap1\n      pop\n        /* \"#utility.yul\":3652:3656   */\n      0x20\n        /* \"#utility.yul\":3646:3650   */\n      dup2\n        /* \"#utility.yul\":3642:3657   */\n      add\n        /* \"#utility.yul\":3634:3657   */\n      swap1\n      pop\n        /* \"#utility.yul\":3343:3664   */\n      swap2\n      swap1\n      pop\n      jump\t// out\n        /* \"#utility.yul\":3670:3787   */\n    tag_80:\n        /* \"#utility.yul\":3779:3780   */\n      0x00\n        /* \"#utility.yul\":3776:3777   */\n      dup1\n        /* \"#utility.yul\":3769:3781   */\n      revert\n        /* \"#utility.yul\":3793:3910   */\n    tag_81:\n        /* \"#utility.yul\":3902:3903   */\n      0x00\n        /* \"#utility.yul\":3899:3900   */\n      dup1\n        /* \"#utility.yul\":3892:3904   */\n      revert\n        /* \"#utility.yul\":3916:4224   */\n    tag_82:\n        /* \"#utility.yul\":3978:3982   */\n      0x00\n        /* \"#utility.yul\":4068:4086   */\n      0xffffffffffffffff\n        /* \"#utility.yul\":4060:4066   */\n      dup3\n        /* \"#utility.yul\":4057:4087   */\n      gt\n        /* \"#utility.yul\":4054:4110   */\n      iszero\n      tag_149\n      jumpi\n        /* \"#utility.yul\":4090:4108   */\n      tag_150\n      tag_76\n      jump\t// in\n    tag_150:\n        /* \"#utility.yul\":4054:4110   */\n    tag_149:\n        /* \"#utility.yul\":4128:4157   */\n      tag_151\n        /* \"#utility.yul\":4150:4156   */\n      dup3\n        /* \"#utility.yul\":4128:4157   */\n      tag_72\n      jump\t// in\n    tag_151:\n        /* \"#utility.yul\":4120:4157   */\n      swap1\n      pop\n        /* \"#utility.yul\":4212:4216   */\n      0x20\n        /* \"#utility.yul\":4206:4210   */\n      dup2\n        /* \"#utility.yul\":4202:4217   */\n      add\n        /* \"#utility.yul\":4194:4217   */\n      swap1\n      pop\n        /* \"#utility.yul\":3916:4224   */\n      swap2\n      swap1\n      pop\n      jump\t// out\n        /* \"#utility.yul\":4230:4378   */\n    tag_83:\n        /* \"#utility.yul\":4328:4334   */\n      dup3\n        /* \"#utility.yul\":4323:4326   */\n      dup2\n        /* \"#utility.yul\":4318:4321   */\n      dup4\n        /* \"#utility.yul\":4305:4335   */\n      calldatacopy\n        /* \"#utility.yul\":4369:4370   */\n      0x00\n        /* \"#utility.yul\":4360:4366   */\n      dup4\n        /* \"#utility.yul\":4355:4358   */\n      dup4\n        /* \"#utility.yul\":4351:4367   */\n      add\n        /* \"#utility.yul\":4344:4371   */\n      mstore\n        /* \"#utility.yul\":4230:4378   */\n      pop\n      pop\n      pop\n      jump\t// out\n        /* \"#utility.yul\":4384:4809   */\n    tag_84:\n        /* \"#utility.yul\":4462:4467   */\n      0x00\n        /* \"#utility.yul\":4487:4553   */\n      tag_154\n        /* \"#utility.yul\":4503:4552   */\n      tag_155\n        /* \"#utility.yul\":4545:4551   */\n      dup5\n        /* \"#utility.yul\":4503:4552   */\n      tag_82\n      jump\t// in\n    tag_155:\n        /* \"#utility.yul\":4487:4553   */\n      tag_78\n      jump\t// in\n    tag_154:\n        /* \"#utility.yul\":4478:4553   */\n      swap1\n      pop\n        /* \"#utility.yul\":4576:4582   */\n      dup3\n        /* \"#utility.yul\":4569:4574   */\n      dup2\n        /* \"#utility.yul\":4562:4583   */\n      mstore\n        /* \"#utility.yul\":4614:4618   */\n      0x20\n        /* \"#utility.yul\":4607:4612   */\n      dup2\n        /* \"#utility.yul\":4603:4619   */\n      add\n        /* \"#utility.yul\":4652:4655   */\n      dup5\n        /* \"#utility.yul\":4643:4649   */\n      dup5\n        /* \"#utility.yul\":4638:4641   */\n      dup5\n        /* \"#utility.yul\":4634:4650   */\n      add\n        /* \"#utility.yul\":4631:4656   */\n      gt\n        /* \"#utility.yul\":4628:4740   */\n      iszero\n      tag_156\n      jumpi\n        /* \"#utility.yul\":4659:4738   */\n      tag_157\n      tag_81\n      jump\t// in\n    tag_157:\n        /* \"#utility.yul\":4628:4740   */\n    tag_156:\n        /* \"#utility.yul\":4749:4803   */\n      tag_158\n        /* \"#utility.yul\":4796:4802   */\n      dup5\n        /* \"#utility.yul\":4791:4794   */\n      dup3\n        /* \"#utility.yul\":4786:4789   */\n      dup6\n        /* \"#utility.yul\":4749:4803   */\n      tag_83\n      jump\t// in\n    tag_158:\n        /* \"#utility.yul\":4468:4809   */\n      pop\n        /* \"#utility.yul\":4384:4809   */\n      swap4\n      swap3\n      pop\n      pop\n      pop\n      jump\t// out\n        /* \"#utility.yul\":4829:5169   */\n    tag_85:\n        /* \"#utility.yul\":4885:4890   */\n      0x00\n        /* \"#utility.yul\":4934:4937   */\n      dup3\n        /* \"#utility.yul\":4927:4931   */\n      0x1f\n        /* \"#utility.yul\":4919:4925   */\n      dup4\n        /* \"#utility.yul\":4915:4932   */\n      add\n        /* \"#utility.yul\":4911:4938   */\n      slt\n        /* \"#utility.yul\":4901:5023   */\n      tag_160\n      jumpi\n        /* \"#utility.yul\":4942:5021   */\n      tag_161\n      tag_75\n      jump\t// in\n    tag_161:\n        /* \"#utility.yul\":4901:5023   */\n    tag_160:\n        /* \"#utility.yul\":5059:5065   */\n      dup2\n        /* \"#utility.yul\":5046:5066   */\n      calldataload\n        /* \"#utility.yul\":5084:5163   */\n      tag_162\n        /* \"#utility.yul\":5159:5162   */\n      dup5\n        /* \"#utility.yul\":5151:5157   */\n      dup3\n        /* \"#utility.yul\":5144:5148   */\n      0x20\n        /* \"#utility.yul\":5136:5142   */\n      dup7\n        /* \"#utility.yul\":5132:5149   */\n      add\n        /* \"#utility.yul\":5084:5163   */\n      tag_84\n      jump\t// in\n    tag_162:\n        /* \"#utility.yul\":5075:5163   */\n      swap2\n      pop\n        /* \"#utility.yul\":4891:5169   */\n      pop\n        /* \"#utility.yul\":4829:5169   */\n      swap3\n      swap2\n      pop\n      pop\n      jump\t// out\n        /* \"#utility.yul\":5191:6136   */\n    tag_86:\n        /* \"#utility.yul\":5297:5302   */\n      0x00\n        /* \"#utility.yul\":5322:5413   */\n      tag_164\n        /* \"#utility.yul\":5338:5412   */\n      tag_165\n        /* \"#utility.yul\":5405:5411   */\n      dup5\n        /* \"#utility.yul\":5338:5412   */\n      tag_79\n      jump\t// in\n    tag_165:\n        /* \"#utility.yul\":5322:5413   */\n      tag_78\n      jump\t// in\n    tag_164:\n        /* \"#utility.yul\":5313:5413   */\n      swap1\n      pop\n        /* \"#utility.yul\":5433:5438   */\n      dup1\n        /* \"#utility.yul\":5462:5468   */\n      dup4\n        /* \"#utility.yul\":5455:5460   */\n      dup3\n        /* \"#utility.yul\":5448:5469   */\n      mstore\n        /* \"#utility.yul\":5496:5500   */\n      0x20\n        /* \"#utility.yul\":5489:5494   */\n      dup3\n        /* \"#utility.yul\":5485:5501   */\n      add\n        /* \"#utility.yul\":5478:5501   */\n      swap1\n      pop\n        /* \"#utility.yul\":5549:5553   */\n      0x20\n        /* \"#utility.yul\":5541:5547   */\n      dup5\n        /* \"#utility.yul\":5537:5554   */\n      mul\n        /* \"#utility.yul\":5529:5535   */\n      dup4\n        /* \"#utility.yul\":5525:5555   */\n      add\n        /* \"#utility.yul\":5578:5581   */\n      dup6\n        /* \"#utility.yul\":5570:5576   */\n      dup2\n        /* \"#utility.yul\":5567:5582   */\n      gt\n        /* \"#utility.yul\":5564:5686   */\n      iszero\n      tag_166\n      jumpi\n        /* \"#utility.yul\":5597:5676   */\n      tag_167\n      tag_80\n      jump\t// in\n    tag_167:\n        /* \"#utility.yul\":5564:5686   */\n    tag_166:\n        /* \"#utility.yul\":5712:5718   */\n      dup4\n        /* \"#utility.yul\":5695:6130   */\n    tag_168:\n        /* \"#utility.yul\":5729:5735   */\n      dup2\n        /* \"#utility.yul\":5724:5727   */\n      dup2\n        /* \"#utility.yul\":5721:5736   */\n      lt\n        /* \"#utility.yul\":5695:6130   */\n      iszero\n      tag_170\n      jumpi\n        /* \"#utility.yul\":5818:5821   */\n      dup1\n        /* \"#utility.yul\":5805:5822   */\n      calldataload\n        /* \"#utility.yul\":5854:5872   */\n      0xffffffffffffffff\n        /* \"#utility.yul\":5841:5852   */\n      dup2\n        /* \"#utility.yul\":5838:5873   */\n      gt\n        /* \"#utility.yul\":5835:5957   */\n      iszero\n      tag_171\n      jumpi\n        /* \"#utility.yul\":5876:5955   */\n      tag_172\n      tag_75\n      jump\t// in\n    tag_172:\n        /* \"#utility.yul\":5835:5957   */\n    tag_171:\n        /* \"#utility.yul\":6000:6011   */\n      dup1\n        /* \"#utility.yul\":5992:5998   */\n      dup7\n        /* \"#utility.yul\":5988:6012   */\n      add\n        /* \"#utility.yul\":6038:6085   */\n      tag_173\n        /* \"#utility.yul\":6081:6084   */\n      dup10\n        /* \"#utility.yul\":6069:6079   */\n      dup3\n        /* \"#utility.yul\":6038:6085   */\n      tag_85\n      jump\t// in\n    tag_173:\n        /* \"#utility.yul\":6033:6036   */\n      dup6\n        /* \"#utility.yul\":6026:6086   */\n      mstore\n        /* \"#utility.yul\":6115:6119   */\n      0x20\n        /* \"#utility.yul\":6110:6113   */\n      dup6\n        /* \"#utility.yul\":6106:6120   */\n      add\n        /* \"#utility.yul\":6099:6120   */\n      swap5\n      pop\n        /* \"#utility.yul\":5771:6130   */\n      pop\n      pop\n        /* \"#utility.yul\":5755:5759   */\n      0x20\n        /* \"#utility.yul\":5750:5753   */\n      dup2\n        /* \"#utility.yul\":5746:5760   */\n      add\n        /* \"#utility.yul\":5739:5760   */\n      swap1\n      pop\n        /* \"#utility.yul\":5695:6130   */\n      jump(tag_168)\n    tag_170:\n        /* \"#utility.yul\":5699:5720   */\n      pop\n        /* \"#utility.yul\":5303:6136   */\n      pop\n      pop\n        /* \"#utility.yul\":5191:6136   */\n      swap4\n      swap3\n      pop\n      pop\n      pop\n      jump\t// out\n        /* \"#utility.yul\":6158:6548   */\n    tag_87:\n        /* \"#utility.yul\":6239:6244   */\n      0x00\n        /* \"#utility.yul\":6288:6291   */\n      dup3\n        /* \"#utility.yul\":6281:6285   */\n      0x1f\n        /* \"#utility.yul\":6273:6279   */\n      dup4\n        /* \"#utility.yul\":6269:6286   */\n      add\n        /* \"#utility.yul\":6265:6292   */\n      slt\n        /* \"#utility.yul\":6255:6377   */\n      tag_175\n      jumpi\n        /* \"#utility.yul\":6296:6375   */\n      tag_176\n      tag_75\n      jump\t// in\n    tag_176:\n        /* \"#utility.yul\":6255:6377   */\n    tag_175:\n        /* \"#utility.yul\":6413:6419   */\n      dup2\n        /* \"#utility.yul\":6400:6420   */\n      calldataload\n        /* \"#utility.yul\":6438:6542   */\n      tag_177\n        /* \"#utility.yul\":6538:6541   */\n      dup5\n        /* \"#utility.yul\":6530:6536   */\n      dup3\n        /* \"#utility.yul\":6523:6527   */\n      0x20\n        /* \"#utility.yul\":6515:6521   */\n      dup7\n        /* \"#utility.yul\":6511:6528   */\n      add\n        /* \"#utility.yul\":6438:6542   */\n      tag_86\n      jump\t// in\n    tag_177:\n        /* \"#utility.yul\":6429:6542   */\n      swap2\n      pop\n        /* \"#utility.yul\":6245:6548   */\n      pop\n        /* \"#utility.yul\":6158:6548   */\n      swap3\n      swap2\n      pop\n      pop\n      jump\t// out\n        /* \"#utility.yul\":6554:7113   */\n    tag_24:\n        /* \"#utility.yul\":6648:6654   */\n      0x00\n        /* \"#utility.yul\":6697:6699   */\n      0x20\n        /* \"#utility.yul\":6685:6694   */\n      dup3\n        /* \"#utility.yul\":6676:6683   */\n      dup5\n        /* \"#utility.yul\":6672:6695   */\n      sub\n        /* \"#utility.yul\":6668:6700   */\n      slt\n        /* \"#utility.yul\":6665:6784   */\n      iszero\n      tag_179\n      jumpi\n        /* \"#utility.yul\":6703:6782   */\n      tag_180\n      tag_64\n      jump\t// in\n    tag_180:\n        /* \"#utility.yul\":6665:6784   */\n    tag_179:\n        /* \"#utility.yul\":6851:6852   */\n      0x00\n        /* \"#utility.yul\":6840:6849   */\n      dup3\n        /* \"#utility.yul\":6836:6853   */\n      add\n        /* \"#utility.yul\":6823:6854   */\n      calldataload\n        /* \"#utility.yul\":6881:6899   */\n      0xffffffffffffffff\n        /* \"#utility.yul\":6873:6879   */\n      dup2\n        /* \"#utility.yul\":6870:6900   */\n      gt\n        /* \"#utility.yul\":6867:6984   */\n      iszero\n      tag_181\n      jumpi\n        /* \"#utility.yul\":6903:6982   */\n      tag_182\n      tag_65\n      jump\t// in\n    tag_182:\n        /* \"#utility.yul\":6867:6984   */\n    tag_181:\n        /* \"#utility.yul\":7008:7096   */\n      tag_183\n        /* \"#utility.yul\":7088:7095   */\n      dup5\n        /* \"#utility.yul\":7079:7085   */\n      dup3\n        /* \"#utility.yul\":7068:7077   */\n      dup6\n        /* \"#utility.yul\":7064:7086   */\n      add\n        /* \"#utility.yul\":7008:7096   */\n      tag_87\n      jump\t// in\n    tag_183:\n        /* \"#utility.yul\":6998:7096   */\n      swap2\n      pop\n        /* \"#utility.yul\":6794:7106   */\n      pop\n        /* \"#utility.yul\":6554:7113   */\n      swap3\n      swap2\n      pop\n      pop\n      jump\t// out\n        /* \"#utility.yul\":7119:7299   */\n    tag_88:\n        /* \"#utility.yul\":7167:7244   */\n      0x4e487b7100000000000000000000000000000000000000000000000000000000\n        /* \"#utility.yul\":7164:7165   */\n      0x00\n        /* \"#utility.yul\":7157:7245   */\n      mstore\n        /* \"#utility.yul\":7264:7268   */\n      0x22\n        /* \"#utility.yul\":7261:7262   */\n      0x04\n        /* \"#utility.yul\":7254:7269   */\n      mstore\n        /* \"#utility.yul\":7288:7292   */\n      0x24\n        /* \"#utility.yul\":7285:7286   */\n      0x00\n        /* \"#utility.yul\":7278:7293   */\n      revert\n        /* \"#utility.yul\":7305:7625   */\n    tag_32:\n        /* \"#utility.yul\":7349:7355   */\n      0x00\n        /* \"#utility.yul\":7386:7387   */\n      0x02\n        /* \"#utility.yul\":7380:7384   */\n      dup3\n        /* \"#utility.yul\":7376:7388   */\n      div\n        /* \"#utility.yul\":7366:7388   */\n      swap1\n      pop\n        /* \"#utility.yul\":7433:7434   */\n      0x01\n        /* \"#utility.yul\":7427:7431   */\n      dup3\n        /* \"#utility.yul\":7423:7435   */\n      and\n        /* \"#utility.yul\":7454:7472   */\n      dup1\n        /* \"#utility.yul\":7444:7525   */\n      tag_186\n      jumpi\n        /* \"#utility.yul\":7510:7514   */\n      0x7f\n        /* \"#utility.yul\":7502:7508   */\n      dup3\n        /* \"#utility.yul\":7498:7515   */\n      and\n        /* \"#utility.yul\":7488:7515   */\n      swap2\n      pop\n        /* \"#utility.yul\":7444:7525   */\n    tag_186:\n        /* \"#utility.yul\":7572:7574   */\n      0x20\n        /* \"#utility.yul\":7564:7570   */\n      dup3\n        /* \"#utility.yul\":7561:7575   */\n      lt\n        /* \"#utility.yul\":7541:7559   */\n      dup2\n        /* \"#utility.yul\":7538:7576   */\n      sub\n        /* \"#utility.yul\":7535:7619   */\n      tag_187\n      jumpi\n        /* \"#utility.yul\":7591:7609   */\n      tag_188\n      tag_88\n      jump\t// in\n    tag_188:\n        /* \"#utility.yul\":7535:7619   */\n    tag_187:\n        /* \"#utility.yul\":7356:7625   */\n      pop\n        /* \"#utility.yul\":7305:7625   */\n      swap2\n      swap1\n      pop\n      jump\t// out\n        /* \"#utility.yul\":7631:7772   */\n    tag_89:\n        /* \"#utility.yul\":7680:7684   */\n      0x00\n        /* \"#utility.yul\":7703:7706   */\n      dup2\n        /* \"#utility.yul\":7695:7706   */\n      swap1\n      pop\n        /* \"#utility.yul\":7726:7729   */\n      dup2\n        /* \"#utility.yul\":7723:7724   */\n      0x00\n        /* \"#utility.yul\":7716:7730   */\n      mstore\n        /* \"#utility.yul\":7760:7764   */\n      0x20\n        /* \"#utility.yul\":7757:7758   */\n      0x00\n        /* \"#utility.yul\":7747:7765   */\n      keccak256\n        /* \"#utility.yul\":7739:7765   */\n      swap1\n      pop\n        /* \"#utility.yul\":7631:7772   */\n      swap2\n      swap1\n      pop\n      jump\t// out\n        /* \"#utility.yul\":7778:7871   */\n    tag_90:\n        /* \"#utility.yul\":7815:7821   */\n      0x00\n        /* \"#utility.yul\":7862:7864   */\n      0x20\n        /* \"#utility.yul\":7857:7859   */\n      0x1f\n        /* \"#utility.yul\":7850:7855   */\n      dup4\n        /* \"#utility.yul\":7846:7860   */\n      add\n        /* \"#utility.yul\":7842:7865   */\n      div\n        /* \"#utility.yul\":7832:7865   */\n      swap1\n      pop\n        /* \"#utility.yul\":7778:7871   */\n      swap2\n      swap1\n      pop\n      jump\t// out\n        /* \"#utility.yul\":7877:7984   */\n    tag_91:\n        /* \"#utility.yul\":7921:7929   */\n      0x00\n        /* \"#utility.yul\":7971:7976   */\n      dup3\n        /* \"#utility.yul\":7965:7969   */\n      dup3\n        /* \"#utility.yul\":7961:7977   */\n      shl\n        /* \"#utility.yul\":7940:7977   */\n      swap1\n      pop\n        /* \"#utility.yul\":7877:7984   */\n      swap3\n      swap2\n      pop\n      pop\n      jump\t// out\n        /* \"#utility.yul\":7990:8383   */\n    tag_92:\n        /* \"#utility.yul\":8059:8065   */\n      0x00\n        /* \"#utility.yul\":8109:8110   */\n      0x08\n        /* \"#utility.yul\":8097:8107   */\n      dup4\n        /* \"#utility.yul\":8093:8111   */\n      mul\n        /* \"#utility.yul\":8132:8229   */\n      tag_193\n        /* \"#utility.yul\":8162:8228   */\n      0xffffffffffffffffffffffffffffffffffffffffffffffffffffffffffffffff\n        /* \"#utility.yul\":8151:8160   */\n      dup3\n        /* \"#utility.yul\":8132:8229   */\n      tag_91\n      jump\t// in\n    tag_193:\n        /* \"#utility.yul\":8250:8289   */\n      tag_194\n        /* \"#utility.yul\":8280:8288   */\n      dup7\n        /* \"#utility.yul\":8269:8278   */\n      dup4\n        /* \"#utility.yul\":8250:8289   */\n      tag_91\n      jump\t// in\n    tag_194:\n        /* \"#utility.yul\":8238:8289   */\n      swap6\n      pop\n        /* \"#utility.yul\":8322:8326   */\n      dup1\n        /* \"#utility.yul\":8318:8327   */\n      not\n        /* \"#utility.yul\":8311:8316   */\n      dup5\n        /* \"#utility.yul\":8307:8328   */\n      and\n        /* \"#utility.yul\":8298:8328   */\n      swap4\n      pop\n        /* \"#utility.yul\":8371:8375   */\n      dup1\n        /* \"#utility.yul\":8361:8369   */\n      dup7\n        /* \"#utility.yul\":8357:8376   */\n      and\n        /* \"#utility.yul\":8350:8355   */\n      dup5\n        /* \"#utility.yul\":8347:8377   */\n      or\n        /* \"#utility.yul\":8337:8377   */\n      swap3\n      pop\n        /* \"#utility.yul\":8066:8383   */\n      pop\n      pop\n        /* \"#utility.yul\":7990:8383   */\n      swap4\n      swap3\n      pop\n      pop\n      pop\n      jump\t// out\n        /* \"#utility.yul\":8389:8449   */\n    tag_93:\n        /* \"#utility.yul\":8417:8420   */\n      0x00\n        /* \"#utility.yul\":8438:8443   */\n      dup2\n        /* \"#utility.yul\":8431:8443   */\n      swap1\n      pop\n        /* \"#utility.yul\":8389:8449   */\n      swap2\n      swap1\n      pop\n      jump\t// out\n        /* \"#utility.yul\":8455:8597   */\n    tag_94:\n        /* \"#utility.yul\":8505:8514   */\n      0x00\n        /* \"#utility.yul\":8538:8591   */\n      tag_197\n        /* \"#utility.yul\":8556:8590   */\n      tag_198\n        /* \"#utility.yul\":8565:8589   */\n      tag_199\n        /* \"#utility.yul\":8583:8588   */\n      dup5\n        /* \"#utility.yul\":8565:8589   */\n      tag_66\n      jump\t// in\n    tag_199:\n        /* \"#utility.yul\":8556:8590   */\n      tag_93\n      jump\t// in\n    tag_198:\n        /* \"#utility.yul\":8538:8591   */\n      tag_66\n      jump\t// in\n    tag_197:\n        /* \"#utility.yul\":8525:8591   */\n      swap1\n      pop\n        /* \"#utility.yul\":8455:8597   */\n      swap2\n      swap1\n      pop\n      jump\t// out\n        /* \"#utility.yul\":8603:8678   */\n    tag_95:\n        /* \"#utility.yul\":8646:8649   */\n      0x00\n        /* \"#utility.yul\":8667:8672   */\n      dup2\n        /* \"#utility.yul\":8660:8672   */\n      swap1\n      pop\n        /* \"#utility.yul\":8603:8678   */\n      swap2\n      swap1\n      pop\n      jump\t// out\n        /* \"#utility.yul\":8684:8953   */\n    tag_96:\n        /* \"#utility.yul\":8794:8833   */\n      tag_202\n        /* \"#utility.yul\":8825:8832   */\n      dup4\n        /* \"#utility.yul\":8794:8833   */\n      tag_94\n      jump\t// in\n    tag_202:\n        /* \"#utility.yul\":8855:8946   */\n      tag_203\n        /* \"#utility.yul\":8904:8945   */\n      tag_204\n        /* \"#utility.yul\":8928:8944   */\n      dup3\n        /* \"#utility.yul\":8904:8945   */\n      tag_95\n      jump\t// in\n    tag_204:\n        /* \"#utility.yul\":8896:8902   */\n      dup5\n        /* \"#utility.yul\":8889:8893   */\n      dup5\n        /* \"#utility.yul\":8883:8894   */\n      sload\n        /* \"#utility.yul\":8855:8946   */\n      tag_92\n      jump\t// in\n    tag_203:\n        /* \"#utility.yul\":8849:8853   */\n      dup3\n        /* \"#utility.yul\":8842:8947   */\n      sstore\n        /* \"#utility.yul\":8760:8953   */\n      pop\n        /* \"#utility.yul\":8684:8953   */\n      pop\n      pop\n      pop\n      jump\t// out\n        /* \"#utility.yul\":8959:9032   */\n    tag_97:\n        /* \"#utility.yul\":9004:9007   */\n      0x00\n        /* \"#utility.yul\":8959:9032   */\n      swap1\n      jump\t// out\n        /* \"#utility.yul\":9038:9227   */\n    tag_98:\n        /* \"#utility.yul\":9115:9147   */\n      tag_207\n      tag_97\n      jump\t// in\n    tag_207:\n        /* \"#utility.yul\":9156:9221   */\n      tag_208\n        /* \"#utility.yul\":9214:9220   */\n      dup2\n        /* \"#utility.yul\":9206:9212   */\n      dup5\n        /* \"#utility.yul\":9200:9204   */\n      dup5\n        /* \"#utility.yul\":9156:9221   */\n      tag_96\n      jump\t// in\n    tag_208:\n        /* \"#utility.yul\":9091:9227   */\n      pop\n        /* \"#utility.yul\":9038:9227   */\n      pop\n      pop\n      jump\t// out\n        /* \"#utility.yul\":9233:9419   */\n    tag_99:\n        /* \"#utility.yul\":9293:9413   */\n    tag_210:\n        /* \"#utility.yul\":9310:9313   */\n      dup2\n        /* \"#utility.yul\":9303:9308   */\n      dup2\n        /* \"#utility.yul\":9300:9314   */\n      lt\n        /* \"#utility.yul\":9293:9413   */\n      iszero\n      tag_212\n      jumpi\n        /* \"#utility.yul\":9364:9403   */\n      tag_213\n        /* \"#utility.yul\":9401:9402   */\n      0x00\n        /* \"#utility.yul\":9394:9399   */\n      dup3\n        /* \"#utility.yul\":9364:9403   */\n      tag_98\n      jump\t// in\n    tag_213:\n        /* \"#utility.yul\":9337:9338   */\n      0x01\n        /* \"#utility.yul\":9330:9335   */\n      dup2\n        /* \"#utility.yul\":9326:9339   */\n      add\n        /* \"#utility.yul\":9317:9339   */\n      swap1\n      pop\n        /* \"#utility.yul\":9293:9413   */\n      jump(tag_210)\n    tag_212:\n        /* \"#utility.yul\":9233:9419   */\n      pop\n      pop\n      jump\t// out\n        /* \"#utility.yul\":9425:9968   */\n    tag_100:\n        /* \"#utility.yul\":9526:9528   */\n      0x1f\n        /* \"#utility.yul\":9521:9524   */\n      dup3\n        /* \"#utility.yul\":9518:9529   */\n      gt\n        /* \"#utility.yul\":9515:9961   */\n      iszero\n      tag_215\n      jumpi\n        /* \"#utility.yul\":9560:9598   */\n      tag_216\n        /* \"#utility.yul\":9592:9597   */\n      dup2\n        /* \"#utility.yul\":9560:9598   */\n      tag_89\n      jump\t// in\n    tag_216:\n        /* \"#utility.yul\":9644:9673   */\n      tag_217\n        /* \"#utility.yul\":9662:9672   */\n      dup5\n        /* \"#utility.yul\":9644:9673   */\n      tag_90\n      jump\t// in\n    tag_217:\n        /* \"#utility.yul\":9634:9642   */\n      dup2\n        /* \"#utility.yul\":9630:9674   */\n      add\n        /* \"#utility.yul\":9827:9829   */\n      0x20\n        /* \"#utility.yul\":9815:9825   */\n      dup6\n        /* \"#utility.yul\":9812:9830   */\n      lt\n        /* \"#utility.yul\":9809:9858   */\n      iszero\n      tag_218\n      jumpi\n        /* \"#utility.yul\":9848:9856   */\n      dup2\n        /* \"#utility.yul\":9833:9856   */\n      swap1\n      pop\n        /* \"#utility.yul\":9809:9858   */\n    tag_218:\n        /* \"#utility.yul\":9871:9951   */\n      tag_219\n        /* \"#utility.yul\":9927:9949   */\n      tag_220\n        /* \"#utility.yul\":9945:9948   */\n      dup6\n        /* \"#utility.yul\":9927:9949   */\n      tag_90\n      jump\t// in\n    tag_220:\n        /* \"#utility.yul\":9917:9925   */\n      dup4\n        /* \"#utility.yul\":9913:9950   */\n      add\n        /* \"#utility.yul\":9900:9911   */\n      dup3\n        /* \"#utility.yul\":9871:9951   */\n      tag_99\n      jump\t// in\n    tag_219:\n        /* \"#utility.yul\":9530:9961   */\n      pop\n      pop\n        /* \"#utility.yul\":9515:9961   */\n    tag_215:\n        /* \"#utility.yul\":9425:9968   */\n      pop\n      pop\n      pop\n      jump\t// out\n        /* \"#utility.yul\":9974:10091   */\n    tag_101:\n        /* \"#utility.yul\":10028:10036   */\n      0x00\n        /* \"#utility.yul\":10078:10083   */\n      dup3\n        /* \"#utility.yul\":10072:10076   */\n      dup3\n        /* \"#utility.yul\":10068:10084   */\n      shr\n        /* \"#utility.yul\":10047:10084   */\n      swap1\n      pop\n        /* \"#utility.yul\":9974:10091   */\n      swap3\n      swap2\n      pop\n      pop\n      jump\t// out\n        /* \"#utility.yul\":10097:10266   */\n    tag_102:\n        /* \"#utility.yul\":10141:10147   */\n      0x00\n        /* \"#utility.yul\":10174:10225   */\n      tag_223\n        /* \"#utility.yul\":10222:10223   */\n      0x00\n        /* \"#utility.yul\":10218:10224   */\n      not\n        /* \"#utility.yul\":10210:10215   */\n      dup5\n        /* \"#utility.yul\":10207:10208   */\n      0x08\n        /* \"#utility.yul\":10203:10216   */\n      mul\n        /* \"#utility.yul\":10174:10225   */\n      tag_101\n      jump\t// in\n    tag_223:\n        /* \"#utility.yul\":10170:10226   */\n      not\n        /* \"#utility.yul\":10255:10259   */\n      dup1\n        /* \"#utility.yul\":10249:10253   */\n      dup4\n        /* \"#utility.yul\":10245:10260   */\n      and\n        /* \"#utility.yul\":10235:10260   */\n      swap2\n      pop\n        /* \"#utility.yul\":10148:10266   */\n      pop\n        /* \"#utility.yul\":10097:10266   */\n      swap3\n      swap2\n      pop\n      pop\n      jump\t// out\n        /* \"#utility.yul\":10271:10566   */\n    tag_103:\n        /* \"#utility.yul\":10347:10351   */\n      0x00\n        /* \"#utility.yul\":10493:10522   */\n      tag_225\n        /* \"#utility.yul\":10518:10521   */\n      dup4\n        /* \"#utility.yul\":10512:10516   */\n      dup4\n        /* \"#utility.yul\":10493:10522   */\n      tag_102\n      jump\t// in\n    tag_225:\n        /* \"#utility.yul\":10485:10522   */\n      swap2\n      pop\n        /* \"#utility.yul\":10555:10558   */\n      dup3\n        /* \"#utility.yul\":10552:10553   */\n      0x02\n        /* \"#utility.yul\":10548:10559   */\n      mul\n        /* \"#utility.yul\":10542:10546   */\n      dup3\n        /* \"#utility.yul\":10539:10560   */\n      or\n        /* \"#utility.yul\":10531:10560   */\n      swap1\n      pop\n        /* \"#utility.yul\":10271:10566   */\n      swap3\n      swap2\n      pop\n      pop\n      jump\t// out\n        /* \"#utility.yul\":10571:11966   */\n    tag_42:\n        /* \"#utility.yul\":10688:10725   */\n      tag_227\n        /* \"#utility.yul\":10721:10724   */\n      dup3\n        /* \"#utility.yul\":10688:10725   */\n      tag_69\n      jump\t// in\n    tag_227:\n        /* \"#utility.yul\":10790:10808   */\n      0xffffffffffffffff\n        /* \"#utility.yul\":10782:10788   */\n      dup2\n        /* \"#utility.yul\":10779:10809   */\n      gt\n        /* \"#utility.yul\":10776:10832   */\n      iszero\n      tag_228\n      jumpi\n        /* \"#utility.yul\":10812:10830   */\n      tag_229\n      tag_76\n      jump\t// in\n    tag_229:\n        /* \"#utility.yul\":10776:10832   */\n    tag_228:\n        /* \"#utility.yul\":10856:10894   */\n      tag_230\n        /* \"#utility.yul\":10888:10892   */\n      dup3\n        /* \"#utility.yul\":10882:10893   */\n      sload\n        /* \"#utility.yul\":10856:10894   */\n      tag_32\n      jump\t// in\n    tag_230:\n        /* \"#utility.yul\":10941:11008   */\n      tag_231\n        /* \"#utility.yul\":11001:11007   */\n      dup3\n        /* \"#utility.yul\":10993:10999   */\n      dup3\n        /* \"#utility.yul\":10987:10991   */\n      dup6\n        /* \"#utility.yul\":10941:11008   */\n      tag_100\n      jump\t// in\n    tag_231:\n        /* \"#utility.yul\":11035:11036   */\n      0x00\n        /* \"#utility.yul\":11059:11063   */\n      0x20\n        /* \"#utility.yul\":11046:11063   */\n      swap1\n      pop\n        /* \"#utility.yul\":11091:11093   */\n      0x1f\n        /* \"#utility.yul\":11083:11089   */\n      dup4\n        /* \"#utility.yul\":11080:11094   */\n      gt\n        /* \"#utility.yul\":11108:11109   */\n      0x01\n        /* \"#utility.yul\":11103:11721   */\n      dup2\n      eq\n      tag_233\n      jumpi\n        /* \"#utility.yul\":11765:11766   */\n      0x00\n        /* \"#utility.yul\":11782:11788   */\n      dup5\n        /* \"#utility.yul\":11779:11856   */\n      iszero\n      tag_234\n      jumpi\n        /* \"#utility.yul\":11831:11840   */\n      dup3\n        /* \"#utility.yul\":11826:11829   */\n      dup8\n        /* \"#utility.yul\":11822:11841   */\n      add\n        /* \"#utility.yul\":11816:11842   */\n      mload\n        /* \"#utility.yul\":11807:11842   */\n      swap1\n      pop\n        /* \"#utility.yul\":11779:11856   */\n    tag_234:\n        /* \"#utility.yul\":11882:11949   */\n      tag_235\n        /* \"#utility.yul\":11942:11948   */\n      dup6\n        /* \"#utility.yul\":11935:11940   */\n      dup3\n        /* \"#utility.yul\":11882:11949   */\n      tag_103\n      jump\t// in\n    tag_235:\n        /* \"#utility.yul\":11876:11880   */\n      dup7\n        /* \"#utility.yul\":11869:11950   */\n      sstore\n        /* \"#utility.yul\":11738:11960   */\n      pop\n        /* \"#utility.yul\":11073:11960   */\n      jump(tag_232)\n        /* \"#utility.yul\":11103:11721   */\n    tag_233:\n        /* \"#utility.yul\":11155:11159   */\n      0x1f\n        /* \"#utility.yul\":11151:11160   */\n      not\n        /* \"#utility.yul\":11143:11149   */\n      dup5\n        /* \"#utility.yul\":11139:11161   */\n      and\n        /* \"#utility.yul\":11189:11226   */\n      tag_236\n        /* \"#utility.yul\":11221:11225   */\n      dup7\n        /* \"#utility.yul\":11189:11226   */\n      tag_89\n      jump\t// in\n    tag_236:\n        /* \"#utility.yul\":11248:11249   */\n      0x00\n        /* \"#utility.yul\":11262:11470   */\n    tag_237:\n        /* \"#utility.yul\":11276:11283   */\n      dup3\n        /* \"#utility.yul\":11273:11274   */\n      dup2\n        /* \"#utility.yul\":11270:11284   */\n      lt\n        /* \"#utility.yul\":11262:11470   */\n      iszero\n      tag_239\n      jumpi\n        /* \"#utility.yul\":11355:11364   */\n      dup5\n        /* \"#utility.yul\":11350:11353   */\n      dup10\n        /* \"#utility.yul\":11346:11365   */\n      add\n        /* \"#utility.yul\":11340:11366   */\n      mload\n        /* \"#utility.yul\":11332:11338   */\n      dup3\n        /* \"#utility.yul\":11325:11367   */\n      sstore\n        /* \"#utility.yul\":11406:11407   */\n      0x01\n        /* \"#utility.yul\":11398:11404   */\n      dup3\n        /* \"#utility.yul\":11394:11408   */\n      add\n        /* \"#utility.yul\":11384:11408   */\n      swap2\n      pop\n        /* \"#utility.yul\":11453:11455   */\n      0x20\n        /* \"#utility.yul\":11442:11451   */\n      dup6\n        /* \"#utility.yul\":11438:11456   */\n      add\n        /* \"#utility.yul\":11425:11456   */\n      swap5\n      pop\n        /* \"#utility.yul\":11299:11303   */\n      0x20\n        /* \"#utility.yul\":11296:11297   */\n      dup2\n        /* \"#utility.yul\":11292:11304   */\n      add\n        /* \"#utility.yul\":11287:11304   */\n      swap1\n      pop\n        /* \"#utility.yul\":11262:11470   */\n      jump(tag_237)\n    tag_239:\n        /* \"#utility.yul\":11498:11504   */\n      dup7\n        /* \"#utility.yul\":11489:11496   */\n      dup4\n        /* \"#utility.yul\":11486:11505   */\n      lt\n        /* \"#utility.yul\":11483:11662   */\n      iszero\n      tag_240\n      jumpi\n        /* \"#utility.yul\":11556:11565   */\n      dup5\n        /* \"#utility.yul\":11551:11554   */\n      dup10\n        /* \"#utility.yul\":11547:11566   */\n      add\n        /* \"#utility.yul\":11541:11567   */\n      mload\n        /* \"#utility.yul\":11599:11647   */\n      tag_241\n        /* \"#utility.yul\":11641:11645   */\n      0x1f\n        /* \"#utility.yul\":11633:11639   */\n      dup10\n        /* \"#utility.yul\":11629:11646   */\n      and\n        /* \"#utility.yul\":11618:11627   */\n      dup3\n        /* \"#utility.yul\":11599:11647   */\n      tag_102\n      jump\t// in\n    tag_241:\n        /* \"#utility.yul\":11591:11597   */\n      dup4\n        /* \"#utility.yul\":11584:11648   */\n      sstore\n        /* \"#utility.yul\":11506:11662   */\n      pop\n        /* \"#utility.yul\":11483:11662   */\n    tag_240:\n        /* \"#utility.yul\":11708:11709   */\n      0x01\n        /* \"#utility.yul\":11704:11705   */\n      0x02\n        /* \"#utility.yul\":11696:11702   */\n      dup9\n        /* \"#utility.yul\":11692:11706   */\n      mul\n        /* \"#utility.yul\":11688:11710   */\n      add\n        /* \"#utility.yul\":11682:11686   */\n      dup9\n        /* \"#utility.yul\":11675:11711   */\n      sstore\n        /* \"#utility.yul\":11110:11721   */\n      pop\n      pop\n      pop\n        /* \"#utility.yul\":11073:11960   */\n    tag_232:\n      pop\n        /* \"#utility.yul\":10663:11966   */\n      pop\n      pop\n      pop\n        /* \"#utility.yul\":10571:11966   */\n      pop\n      pop\n      jump\t// out\n        /* \"#utility.yul\":11972:12152   */\n    tag_48:\n        /* \"#utility.yul\":12020:12097   */\n      0x4e487b7100000000000000000000000000000000000000000000000000000000\n        /* \"#utility.yul\":12017:12018   */\n      0x00\n        /* \"#utility.yul\":12010:12098   */\n      mstore\n        /* \"#utility.yul\":12117:12121   */\n      0x32\n        /* \"#utility.yul\":12114:12115   */\n      0x04\n        /* \"#utility.yul\":12107:12122   */\n      mstore\n        /* \"#utility.yul\":12141:12145   */\n      0x24\n        /* \"#utility.yul\":12138:12139   */\n      0x00\n        /* \"#utility.yul\":12131:12146   */\n      revert\n        /* \"#utility.yul\":12158:12338   */\n    tag_104:\n        /* \"#utility.yul\":12206:12283   */\n      0x4e487b7100000000000000000000000000000000000000000000000000000000\n        /* \"#utility.yul\":12203:12204   */\n      0x00\n        /* \"#utility.yul\":12196:12284   */\n      mstore\n        /* \"#utility.yul\":12303:12307   */\n      0x11\n        /* \"#utility.yul\":12300:12301   */\n      0x04\n        /* \"#utility.yul\":12293:12308   */\n      mstore\n        /* \"#utility.yul\":12327:12331   */\n      0x24\n        /* \"#utility.yul\":12324:12325   */\n      0x00\n        /* \"#utility.yul\":12317:12332   */\n      revert\n        /* \"#utility.yul\":12344:12577   */\n    tag_51:\n        /* \"#utility.yul\":12383:12386   */\n      0x00\n        /* \"#utility.yul\":12406:12430   */\n      tag_245\n        /* \"#utility.yul\":12424:12429   */\n      dup3\n        /* \"#utility.yul\":12406:12430   */\n      tag_66\n      jump\t// in\n    tag_245:\n        /* \"#utility.yul\":12397:12430   */\n      swap2\n      pop\n        /* \"#utility.yul\":12452:12518   */\n      0xffffffffffffffffffffffffffffffffffffffffffffffffffffffffffffffff\n        /* \"#utility.yul\":12445:12450   */\n      dup3\n        /* \"#utility.yul\":12442:12519   */\n      sub\n        /* \"#utility.yul\":12439:12542   */\n      tag_246\n      jumpi\n        /* \"#utility.yul\":12522:12540   */\n      tag_247\n      tag_104\n      jump\t// in\n    tag_247:\n        /* \"#utility.yul\":12439:12542   */\n    tag_246:\n        /* \"#utility.yul\":12569:12570   */\n      0x01\n        /* \"#utility.yul\":12562:12567   */\n      dup3\n        /* \"#utility.yul\":12558:12571   */\n      add\n        /* \"#utility.yul\":12551:12571   */\n      swap1\n      pop\n        /* \"#utility.yul\":12344:12577   */\n      swap2\n      swap1\n      pop\n      jump\t// out\n\n    auxdata: 0xa2646970667358221220639f75e6e740192ce21a8402d2c21cf7056fa97a41c00c36a05241c1f6561bd564736f6c63430008190033\n}\n",
				"bytecode": {
					"linkReferences": {},
					"object": "60806040525f6001553480156012575f80fd5b50610a2d806100205f395ff3fe608060405234801561000f575f80fd5b5060043610610060575f3560e01c806306ead22e146100645780631003e2d21461009457806322fcefbe146100b05780634e303c60146100ce578063dfc262c9146100ea578063e308ae72146100f4575b5f80fd5b61007e60048036038101906100799190610355565b610110565b60405161008b91906103f0565b60405180910390f35b6100ae60048036038101906100a99190610355565b6101aa565b005b6100b8610218565b6040516100c5919061041f565b60405180910390f35b6100e860048036038101906100e39190610646565b61021e565b005b6100f2610278565b005b61010e60048036038101906101099190610355565b6102b3565b005b5f602052805f5260405f205f91509050805461012b906106ba565b80601f0160208091040260200160405190810160405280929190818152602001828054610157906106ba565b80156101a25780601f10610179576101008083540402835291602001916101a2565b820191905f5260205f20905b81548152906001019060200180831161018557829003601f168201915b505050505081565b5f5b81811015610214576040518060400160405280600c81526020017f5455534841522053494e474800000000000000000000000000000000000000008152505f808381526020019081526020015f2090816102069190610887565b5080806001019150506101ac565b5050565b60015481565b5f5b81518110156102745781818151811061023c5761023b610956565b5b60200260200101515f808381526020019081526020015f2090816102609190610887565b50808061026c906109b0565b915050610220565b5050565b5f5b600a8112156102b05760058103156102b05760015f81548092919061029e906109b0565b9190505550808060010191505061027a565b50565b5b6040518060400160405280600681526020017f54555348415200000000000000000000000000000000000000000000000000008152505f808081526020019081526020015f2090816103069190610887565b505f81106102b45750565b5f604051905090565b5f80fd5b5f80fd5b5f819050919050565b61033481610322565b811461033e575f80fd5b50565b5f8135905061034f8161032b565b92915050565b5f6020828403121561036a5761036961031a565b5b5f61037784828501610341565b91505092915050565b5f81519050919050565b5f82825260208201905092915050565b8281835e5f83830152505050565b5f601f19601f8301169050919050565b5f6103c282610380565b6103cc818561038a565b93506103dc81856020860161039a565b6103e5816103a8565b840191505092915050565b5f6020820190508181035f83015261040881846103b8565b905092915050565b61041981610322565b82525050565b5f6020820190506104325f830184610410565b92915050565b5f80fd5b7f4e487b71000000000000000000000000000000000000000000000000000000005f52604160045260245ffd5b610472826103a8565b810181811067ffffffffffffffff821117156104915761049061043c565b5b80604052505050565b5f6104a3610311565b90506104af8282610469565b919050565b5f67ffffffffffffffff8211156104ce576104cd61043c565b5b602082029050602081019050919050565b5f80fd5b5f80fd5b5f67ffffffffffffffff8211156105015761050061043c565b5b61050a826103a8565b9050602081019050919050565b828183375f83830152505050565b5f610537610532846104e7565b61049a565b905082815260208101848484011115610553576105526104e3565b5b61055e848285610517565b509392505050565b5f82601f83011261057a57610579610438565b5b813561058a848260208601610525565b91505092915050565b5f6105a56105a0846104b4565b61049a565b905080838252602082019050602084028301858111156105c8576105c76104df565b5b835b8181101561060f57803567ffffffffffffffff8111156105ed576105ec610438565b5b8086016105fa8982610566565b855260208501945050506020810190506105ca565b5050509392505050565b5f82601f83011261062d5761062c610438565b5b813561063d848260208601610593565b91505092915050565b5f6020828403121561065b5761065a61031a565b5b5f82013567ffffffffffffffff8111156106785761067761031e565b5b61068484828501610619565b91505092915050565b7f4e487b71000000000000000000000000000000000000000000000000000000005f52602260045260245ffd5b5f60028204905060018216806106d157607f821691505b6020821081036106e4576106e361068d565b5b50919050565b5f819050815f5260205f209050919050565b5f6020601f8301049050919050565b5f82821b905092915050565b5f600883026107467fffffffffffffffffffffffffffffffffffffffffffffffffffffffffffffffff8261070b565b610750868361070b565b95508019841693508086168417925050509392505050565b5f819050919050565b5f61078b61078661078184610322565b610768565b610322565b9050919050565b5f819050919050565b6107a483610771565b6107b86107b082610792565b848454610717565b825550505050565b5f90565b6107cc6107c0565b6107d781848461079b565b505050565b5b818110156107fa576107ef5f826107c4565b6001810190506107dd565b5050565b601f82111561083f57610810816106ea565b610819846106fc565b81016020851015610828578190505b61083c610834856106fc565b8301826107dc565b50505b505050565b5f82821c905092915050565b5f61085f5f1984600802610844565b1980831691505092915050565b5f6108778383610850565b9150826002028217905092915050565b61089082610380565b67ffffffffffffffff8111156108a9576108a861043c565b5b6108b382546106ba565b6108be8282856107fe565b5f60209050601f8311600181146108ef575f84156108dd578287015190505b6108e7858261086c565b86555061094e565b601f1984166108fd866106ea565b5f5b82811015610924578489015182556001820191506020850194506020810190506108ff565b86831015610941578489015161093d601f891682610850565b8355505b6001600288020188555050505b505050505050565b7f4e487b71000000000000000000000000000000000000000000000000000000005f52603260045260245ffd5b7f4e487b71000000000000000000000000000000000000000000000000000000005f52601160045260245ffd5b5f6109ba82610322565b91507fffffffffffffffffffffffffffffffffffffffffffffffffffffffffffffffff82036109ec576109eb610983565b5b60018201905091905056fea2646970667358221220639f75e6e740192ce21a8402d2c21cf7056fa97a41c00c36a05241c1f6561bd564736f6c63430008190033",
					"opcodes": "PUSH1 0x80 PUSH1 0x40 MSTORE PUSH0 PUSH1 0x1 SSTORE CALLVALUE DUP1 ISZERO PUSH1 0x12 JUMPI PUSH0 DUP1 REVERT JUMPDEST POP PUSH2 0xA2D DUP1 PUSH2 0x20 PUSH0 CODECOPY PUSH0 RETURN INVALID PUSH1 0x80 PUSH1 0x40 MSTORE CALLVALUE DUP1 ISZERO PUSH2 0xF JUMPI PUSH0 DUP1 REVERT JUMPDEST POP PUSH1 0x4 CALLDATASIZE LT PUSH2 0x60 JUMPI PUSH0 CALLDATALOAD PUSH1 0xE0 SHR DUP1 PUSH4 0x6EAD22E EQ PUSH2 0x64 JUMPI DUP1 PUSH4 0x1003E2D2 EQ PUSH2 0x94 JUMPI DUP1 PUSH4 0x22FCEFBE EQ PUSH2 0xB0 JUMPI DUP1 PUSH4 0x4E303C60 EQ PUSH2 0xCE JUMPI DUP1 PUSH4 0xDFC262C9 EQ PUSH2 0xEA JUMPI DUP1 PUSH4 0xE308AE72 EQ PUSH2 0xF4 JUMPI JUMPDEST PUSH0 DUP1 REVERT JUMPDEST PUSH2 0x7E PUSH1 0x4 DUP1 CALLDATASIZE SUB DUP2 ADD SWAP1 PUSH2 0x79 SWAP2 SWAP1 PUSH2 0x355 JUMP JUMPDEST PUSH2 0x110 JUMP JUMPDEST PUSH1 0x40 MLOAD PUSH2 0x8B SWAP2 SWAP1 PUSH2 0x3F0 JUMP JUMPDEST PUSH1 0x40 MLOAD DUP1 SWAP2 SUB SWAP1 RETURN JUMPDEST PUSH2 0xAE PUSH1 0x4 DUP1 CALLDATASIZE SUB DUP2 ADD SWAP1 PUSH2 0xA9 SWAP2 SWAP1 PUSH2 0x355 JUMP JUMPDEST PUSH2 0x1AA JUMP JUMPDEST STOP JUMPDEST PUSH2 0xB8 PUSH2 0x218 JUMP JUMPDEST PUSH1 0x40 MLOAD PUSH2 0xC5 SWAP2 SWAP1 PUSH2 0x41F JUMP JUMPDEST PUSH1 0x40 MLOAD DUP1 SWAP2 SUB SWAP1 RETURN JUMPDEST PUSH2 0xE8 PUSH1 0x4 DUP1 CALLDATASIZE SUB DUP2 ADD SWAP1 PUSH2 0xE3 SWAP2 SWAP1 PUSH2 0x646 JUMP JUMPDEST PUSH2 0x21E JUMP JUMPDEST STOP JUMPDEST PUSH2 0xF2 PUSH2 0x278 JUMP JUMPDEST STOP JUMPDEST PUSH2 0x10E PUSH1 0x4 DUP1 CALLDATASIZE SUB DUP2 ADD SWAP1 PUSH2 0x109 SWAP2 SWAP1 PUSH2 0x355 JUMP JUMPDEST PUSH2 0x2B3 JUMP JUMPDEST STOP JUMPDEST PUSH0 PUSH1 0x20 MSTORE DUP1 PUSH0 MSTORE PUSH1 0x40 PUSH0 KECCAK256 PUSH0 SWAP2 POP SWAP1 POP DUP1 SLOAD PUSH2 0x12B SWAP1 PUSH2 0x6BA JUMP JUMPDEST DUP1 PUSH1 0x1F ADD PUSH1 0x20 DUP1 SWAP2 DIV MUL PUSH1 0x20 ADD PUSH1 0x40 MLOAD SWAP1 DUP2 ADD PUSH1 0x40 MSTORE DUP1 SWAP3 SWAP2 SWAP1 DUP2 DUP2 MSTORE PUSH1 0x20 ADD DUP3 DUP1 SLOAD PUSH2 0x157 SWAP1 PUSH2 0x6BA JUMP JUMPDEST DUP1 ISZERO PUSH2 0x1A2 JUMPI DUP1 PUSH1 0x1F LT PUSH2 0x179 JUMPI PUSH2 0x100 DUP1 DUP4 SLOAD DIV MUL DUP4 MSTORE SWAP2 PUSH1 0x20 ADD SWAP2 PUSH2 0x1A2 JUMP JUMPDEST DUP3 ADD SWAP2 SWAP1 PUSH0 MSTORE PUSH1 0x20 PUSH0 KECCAK256 SWAP1 JUMPDEST DUP2 SLOAD DUP2 MSTORE SWAP1 PUSH1 0x1 ADD SWAP1 PUSH1 0x20 ADD DUP1 DUP4 GT PUSH2 0x185 JUMPI DUP3 SWAP1 SUB PUSH1 0x1F AND DUP3 ADD SWAP2 JUMPDEST POP POP POP POP POP DUP2 JUMP JUMPDEST PUSH0 JUMPDEST DUP2 DUP2 LT ISZERO PUSH2 0x214 JUMPI PUSH1 0x40 MLOAD DUP1 PUSH1 0x40 ADD PUSH1 0x40 MSTORE DUP1 PUSH1 0xC DUP2 MSTORE PUSH1 0x20 ADD PUSH32 0x5455534841522053494E47480000000000000000000000000000000000000000 DUP2 MSTORE POP PUSH0 DUP1 DUP4 DUP2 MSTORE PUSH1 0x20 ADD SWAP1 DUP2 MSTORE PUSH1 0x20 ADD PUSH0 KECCAK256 SWAP1 DUP2 PUSH2 0x206 SWAP2 SWAP1 PUSH2 0x887 JUMP JUMPDEST POP DUP1 DUP1 PUSH1 0x1 ADD SWAP2 POP POP PUSH2 0x1AC JUMP JUMPDEST POP POP JUMP JUMPDEST PUSH1 0x1 SLOAD DUP2 JUMP JUMPDEST PUSH0 JUMPDEST DUP2 MLOAD DUP2 LT ISZERO PUSH2 0x274 JUMPI DUP2 DUP2 DUP2 MLOAD DUP2 LT PUSH2 0x23C JUMPI PUSH2 0x23B PUSH2 0x956 JUMP JUMPDEST JUMPDEST PUSH1 0x20 MUL PUSH1 0x20 ADD ADD MLOAD PUSH0 DUP1 DUP4 DUP2 MSTORE PUSH1 0x20 ADD SWAP1 DUP2 MSTORE PUSH1 0x20 ADD PUSH0 KECCAK256 SWAP1 DUP2 PUSH2 0x260 SWAP2 SWAP1 PUSH2 0x887 JUMP JUMPDEST POP DUP1 DUP1 PUSH2 0x26C SWAP1 PUSH2 0x9B0 JUMP JUMPDEST SWAP2 POP POP PUSH2 0x220 JUMP JUMPDEST POP POP JUMP JUMPDEST PUSH0 JUMPDEST PUSH1 0xA DUP2 SLT ISZERO PUSH2 0x2B0 JUMPI PUSH1 0x5 DUP2 SUB ISZERO PUSH2 0x2B0 JUMPI PUSH1 0x1 PUSH0 DUP2 SLOAD DUP1 SWAP3 SWAP2 SWAP1 PUSH2 0x29E SWAP1 PUSH2 0x9B0 JUMP JUMPDEST SWAP2 SWAP1 POP SSTORE POP DUP1 DUP1 PUSH1 0x1 ADD SWAP2 POP POP PUSH2 0x27A JUMP JUMPDEST POP JUMP JUMPDEST JUMPDEST PUSH1 0x40 MLOAD DUP1 PUSH1 0x40 ADD PUSH1 0x40 MSTORE DUP1 PUSH1 0x6 DUP2 MSTORE PUSH1 0x20 ADD PUSH32 0x5455534841520000000000000000000000000000000000000000000000000000 DUP2 MSTORE POP PUSH0 DUP1 DUP1 DUP2 MSTORE PUSH1 0x20 ADD SWAP1 DUP2 MSTORE PUSH1 0x20 ADD PUSH0 KECCAK256 SWAP1 DUP2 PUSH2 0x306 SWAP2 SWAP1 PUSH2 0x887 JUMP JUMPDEST POP PUSH0 DUP2 LT PUSH2 0x2B4 JUMPI POP JUMP JUMPDEST PUSH0 PUSH1 0x40 MLOAD SWAP1 POP SWAP1 JUMP JUMPDEST PUSH0 DUP1 REVERT JUMPDEST PUSH0 DUP1 REVERT JUMPDEST PUSH0 DUP2 SWAP1 POP SWAP2 SWAP1 POP JUMP JUMPDEST PUSH2 0x334 DUP2 PUSH2 0x322 JUMP JUMPDEST DUP2 EQ PUSH2 0x33E JUMPI PUSH0 DUP1 REVERT JUMPDEST POP JUMP JUMPDEST PUSH0 DUP2 CALLDATALOAD SWAP1 POP PUSH2 0x34F DUP2 PUSH2 0x32B JUMP JUMPDEST SWAP3 SWAP2 POP POP JUMP JUMPDEST PUSH0 PUSH1 0x20 DUP3 DUP5 SUB SLT ISZERO PUSH2 0x36A JUMPI PUSH2 0x369 PUSH2 0x31A JUMP JUMPDEST JUMPDEST PUSH0 PUSH2 0x377 DUP5 DUP3 DUP6 ADD PUSH2 0x341 JUMP JUMPDEST SWAP2 POP POP SWAP3 SWAP2 POP POP JUMP JUMPDEST PUSH0 DUP2 MLOAD SWAP1 POP SWAP2 SWAP1 POP JUMP JUMPDEST PUSH0 DUP3 DUP3 MSTORE PUSH1 0x20 DUP3 ADD SWAP1 POP SWAP3 SWAP2 POP POP JUMP JUMPDEST DUP3 DUP2 DUP4 MCOPY PUSH0 DUP4 DUP4 ADD MSTORE POP POP POP JUMP JUMPDEST PUSH0 PUSH1 0x1F NOT PUSH1 0x1F DUP4 ADD AND SWAP1 POP SWAP2 SWAP1 POP JUMP JUMPDEST PUSH0 PUSH2 0x3C2 DUP3 PUSH2 0x380 JUMP JUMPDEST PUSH2 0x3CC DUP2 DUP6 PUSH2 0x38A JUMP JUMPDEST SWAP4 POP PUSH2 0x3DC DUP2 DUP6 PUSH1 0x20 DUP7 ADD PUSH2 0x39A JUMP JUMPDEST PUSH2 0x3E5 DUP2 PUSH2 0x3A8 JUMP JUMPDEST DUP5 ADD SWAP2 POP POP SWAP3 SWAP2 POP POP JUMP JUMPDEST PUSH0 PUSH1 0x20 DUP3 ADD SWAP1 POP DUP2 DUP2 SUB PUSH0 DUP4 ADD MSTORE PUSH2 0x408 DUP2 DUP5 PUSH2 0x3B8 JUMP JUMPDEST SWAP1 POP SWAP3 SWAP2 POP POP JUMP JUMPDEST PUSH2 0x419 DUP2 PUSH2 0x322 JUMP JUMPDEST DUP3 MSTORE POP POP JUMP JUMPDEST PUSH0 PUSH1 0x20 DUP3 ADD SWAP1 POP PUSH2 0x432 PUSH0 DUP4 ADD DUP5 PUSH2 0x410 JUMP JUMPDEST SWAP3 SWAP2 POP POP JUMP JUMPDEST PUSH0 DUP1 REVERT JUMPDEST PUSH32 0x4E487B7100000000000000000000000000000000000000000000000000000000 PUSH0 MSTORE PUSH1 0x41 PUSH1 0x4 MSTORE PUSH1 0x24 PUSH0 REVERT JUMPDEST PUSH2 0x472 DUP3 PUSH2 0x3A8 JUMP JUMPDEST DUP2 ADD DUP2 DUP2 LT PUSH8 0xFFFFFFFFFFFFFFFF DUP3 GT OR ISZERO PUSH2 0x491 JUMPI PUSH2 0x490 PUSH2 0x43C JUMP JUMPDEST JUMPDEST DUP1 PUSH1 0x40 MSTORE POP POP POP JUMP JUMPDEST PUSH0 PUSH2 0x4A3 PUSH2 0x311 JUMP JUMPDEST SWAP1 POP PUSH2 0x4AF DUP3 DUP3 PUSH2 0x469 JUMP JUMPDEST SWAP2 SWAP1 POP JUMP JUMPDEST PUSH0 PUSH8 0xFFFFFFFFFFFFFFFF DUP3 GT ISZERO PUSH2 0x4CE JUMPI PUSH2 0x4CD PUSH2 0x43C JUMP JUMPDEST JUMPDEST PUSH1 0x20 DUP3 MUL SWAP1 POP PUSH1 0x20 DUP2 ADD SWAP1 POP SWAP2 SWAP1 POP JUMP JUMPDEST PUSH0 DUP1 REVERT JUMPDEST PUSH0 DUP1 REVERT JUMPDEST PUSH0 PUSH8 0xFFFFFFFFFFFFFFFF DUP3 GT ISZERO PUSH2 0x501 JUMPI PUSH2 0x500 PUSH2 0x43C JUMP JUMPDEST JUMPDEST PUSH2 0x50A DUP3 PUSH2 0x3A8 JUMP JUMPDEST SWAP1 POP PUSH1 0x20 DUP2 ADD SWAP1 POP SWAP2 SWAP1 POP JUMP JUMPDEST DUP3 DUP2 DUP4 CALLDATACOPY PUSH0 DUP4 DUP4 ADD MSTORE POP POP POP JUMP JUMPDEST PUSH0 PUSH2 0x537 PUSH2 0x532 DUP5 PUSH2 0x4E7 JUMP JUMPDEST PUSH2 0x49A JUMP JUMPDEST SWAP1 POP DUP3 DUP2 MSTORE PUSH1 0x20 DUP2 ADD DUP5 DUP5 DUP5 ADD GT ISZERO PUSH2 0x553 JUMPI PUSH2 0x552 PUSH2 0x4E3 JUMP JUMPDEST JUMPDEST PUSH2 0x55E DUP5 DUP3 DUP6 PUSH2 0x517 JUMP JUMPDEST POP SWAP4 SWAP3 POP POP POP JUMP JUMPDEST PUSH0 DUP3 PUSH1 0x1F DUP4 ADD SLT PUSH2 0x57A JUMPI PUSH2 0x579 PUSH2 0x438 JUMP JUMPDEST JUMPDEST DUP2 CALLDATALOAD PUSH2 0x58A DUP5 DUP3 PUSH1 0x20 DUP7 ADD PUSH2 0x525 JUMP JUMPDEST SWAP2 POP POP SWAP3 SWAP2 POP POP JUMP JUMPDEST PUSH0 PUSH2 0x5A5 PUSH2 0x5A0 DUP5 PUSH2 0x4B4 JUMP JUMPDEST PUSH2 0x49A JUMP JUMPDEST SWAP1 POP DUP1 DUP4 DUP3 MSTORE PUSH1 0x20 DUP3 ADD SWAP1 POP PUSH1 0x20 DUP5 MUL DUP4 ADD DUP6 DUP2 GT ISZERO PUSH2 0x5C8 JUMPI PUSH2 0x5C7 PUSH2 0x4DF JUMP JUMPDEST JUMPDEST DUP4 JUMPDEST DUP2 DUP2 LT ISZERO PUSH2 0x60F JUMPI DUP1 CALLDATALOAD PUSH8 0xFFFFFFFFFFFFFFFF DUP2 GT ISZERO PUSH2 0x5ED JUMPI PUSH2 0x5EC PUSH2 0x438 JUMP JUMPDEST JUMPDEST DUP1 DUP7 ADD PUSH2 0x5FA DUP10 DUP3 PUSH2 0x566 JUMP JUMPDEST DUP6 MSTORE PUSH1 0x20 DUP6 ADD SWAP5 POP POP POP PUSH1 0x20 DUP2 ADD SWAP1 POP PUSH2 0x5CA JUMP JUMPDEST POP POP POP SWAP4 SWAP3 POP POP POP JUMP JUMPDEST PUSH0 DUP3 PUSH1 0x1F DUP4 ADD SLT PUSH2 0x62D JUMPI PUSH2 0x62C PUSH2 0x438 JUMP JUMPDEST JUMPDEST DUP2 CALLDATALOAD PUSH2 0x63D DUP5 DUP3 PUSH1 0x20 DUP7 ADD PUSH2 0x593 JUMP JUMPDEST SWAP2 POP POP SWAP3 SWAP2 POP POP JUMP JUMPDEST PUSH0 PUSH1 0x20 DUP3 DUP5 SUB SLT ISZERO PUSH2 0x65B JUMPI PUSH2 0x65A PUSH2 0x31A JUMP JUMPDEST JUMPDEST PUSH0 DUP3 ADD CALLDATALOAD PUSH8 0xFFFFFFFFFFFFFFFF DUP2 GT ISZERO PUSH2 0x678 JUMPI PUSH2 0x677 PUSH2 0x31E JUMP JUMPDEST JUMPDEST PUSH2 0x684 DUP5 DUP3 DUP6 ADD PUSH2 0x619 JUMP JUMPDEST SWAP2 POP POP SWAP3 SWAP2 POP POP JUMP JUMPDEST PUSH32 0x4E487B7100000000000000000000000000000000000000000000000000000000 PUSH0 MSTORE PUSH1 0x22 PUSH1 0x4 MSTORE PUSH1 0x24 PUSH0 REVERT JUMPDEST PUSH0 PUSH1 0x2 DUP3 DIV SWAP1 POP PUSH1 0x1 DUP3 AND DUP1 PUSH2 0x6D1 JUMPI PUSH1 0x7F DUP3 AND SWAP2 POP JUMPDEST PUSH1 0x20 DUP3 LT DUP2 SUB PUSH2 0x6E4 JUMPI PUSH2 0x6E3 PUSH2 0x68D JUMP JUMPDEST JUMPDEST POP SWAP2 SWAP1 POP JUMP JUMPDEST PUSH0 DUP2 SWAP1 POP DUP2 PUSH0 MSTORE PUSH1 0x20 PUSH0 KECCAK256 SWAP1 POP SWAP2 SWAP1 POP JUMP JUMPDEST PUSH0 PUSH1 0x20 PUSH1 0x1F DUP4 ADD DIV SWAP1 POP SWAP2 SWAP1 POP JUMP JUMPDEST PUSH0 DUP3 DUP3 SHL SWAP1 POP SWAP3 SWAP2 POP POP JUMP JUMPDEST PUSH0 PUSH1 0x8 DUP4 MUL PUSH2 0x746 PUSH32 0xFFFFFFFFFFFFFFFFFFFFFFFFFFFFFFFFFFFFFFFFFFFFFFFFFFFFFFFFFFFFFFFF DUP3 PUSH2 0x70B JUMP JUMPDEST PUSH2 0x750 DUP7 DUP4 PUSH2 0x70B JUMP JUMPDEST SWAP6 POP DUP1 NOT DUP5 AND SWAP4 POP DUP1 DUP7 AND DUP5 OR SWAP3 POP POP POP SWAP4 SWAP3 POP POP POP JUMP JUMPDEST PUSH0 DUP2 SWAP1 POP SWAP2 SWAP1 POP JUMP JUMPDEST PUSH0 PUSH2 0x78B PUSH2 0x786 PUSH2 0x781 DUP5 PUSH2 0x322 JUMP JUMPDEST PUSH2 0x768 JUMP JUMPDEST PUSH2 0x322 JUMP JUMPDEST SWAP1 POP SWAP2 SWAP1 POP JUMP JUMPDEST PUSH0 DUP2 SWAP1 POP SWAP2 SWAP1 POP JUMP JUMPDEST PUSH2 0x7A4 DUP4 PUSH2 0x771 JUMP JUMPDEST PUSH2 0x7B8 PUSH2 0x7B0 DUP3 PUSH2 0x792 JUMP JUMPDEST DUP5 DUP5 SLOAD PUSH2 0x717 JUMP JUMPDEST DUP3 SSTORE POP POP POP POP JUMP JUMPDEST PUSH0 SWAP1 JUMP JUMPDEST PUSH2 0x7CC PUSH2 0x7C0 JUMP JUMPDEST PUSH2 0x7D7 DUP2 DUP5 DUP5 PUSH2 0x79B JUMP JUMPDEST POP POP POP JUMP JUMPDEST JUMPDEST DUP2 DUP2 LT ISZERO PUSH2 0x7FA JUMPI PUSH2 0x7EF PUSH0 DUP3 PUSH2 0x7C4 JUMP JUMPDEST PUSH1 0x1 DUP2 ADD SWAP1 POP PUSH2 0x7DD JUMP JUMPDEST POP POP JUMP JUMPDEST PUSH1 0x1F DUP3 GT ISZERO PUSH2 0x83F JUMPI PUSH2 0x810 DUP2 PUSH2 0x6EA JUMP JUMPDEST PUSH2 0x819 DUP5 PUSH2 0x6FC JUMP JUMPDEST DUP2 ADD PUSH1 0x20 DUP6 LT ISZERO PUSH2 0x828 JUMPI DUP2 SWAP1 POP JUMPDEST PUSH2 0x83C PUSH2 0x834 DUP6 PUSH2 0x6FC JUMP JUMPDEST DUP4 ADD DUP3 PUSH2 0x7DC JUMP JUMPDEST POP POP JUMPDEST POP POP POP JUMP JUMPDEST PUSH0 DUP3 DUP3 SHR SWAP1 POP SWAP3 SWAP2 POP POP JUMP JUMPDEST PUSH0 PUSH2 0x85F PUSH0 NOT DUP5 PUSH1 0x8 MUL PUSH2 0x844 JUMP JUMPDEST NOT DUP1 DUP4 AND SWAP2 POP POP SWAP3 SWAP2 POP POP JUMP JUMPDEST PUSH0 PUSH2 0x877 DUP4 DUP4 PUSH2 0x850 JUMP JUMPDEST SWAP2 POP DUP3 PUSH1 0x2 MUL DUP3 OR SWAP1 POP SWAP3 SWAP2 POP POP JUMP JUMPDEST PUSH2 0x890 DUP3 PUSH2 0x380 JUMP JUMPDEST PUSH8 0xFFFFFFFFFFFFFFFF DUP2 GT ISZERO PUSH2 0x8A9 JUMPI PUSH2 0x8A8 PUSH2 0x43C JUMP JUMPDEST JUMPDEST PUSH2 0x8B3 DUP3 SLOAD PUSH2 0x6BA JUMP JUMPDEST PUSH2 0x8BE DUP3 DUP3 DUP6 PUSH2 0x7FE JUMP JUMPDEST PUSH0 PUSH1 0x20 SWAP1 POP PUSH1 0x1F DUP4 GT PUSH1 0x1 DUP2 EQ PUSH2 0x8EF JUMPI PUSH0 DUP5 ISZERO PUSH2 0x8DD JUMPI DUP3 DUP8 ADD MLOAD SWAP1 POP JUMPDEST PUSH2 0x8E7 DUP6 DUP3 PUSH2 0x86C JUMP JUMPDEST DUP7 SSTORE POP PUSH2 0x94E JUMP JUMPDEST PUSH1 0x1F NOT DUP5 AND PUSH2 0x8FD DUP7 PUSH2 0x6EA JUMP JUMPDEST PUSH0 JUMPDEST DUP3 DUP2 LT ISZERO PUSH2 0x924 JUMPI DUP5 DUP10 ADD MLOAD DUP3 SSTORE PUSH1 0x1 DUP3 ADD SWAP2 POP PUSH1 0x20 DUP6 ADD SWAP5 POP PUSH1 0x20 DUP2 ADD SWAP1 POP PUSH2 0x8FF JUMP JUMPDEST DUP7 DUP4 LT ISZERO PUSH2 0x941 JUMPI DUP5 DUP10 ADD MLOAD PUSH2 0x93D PUSH1 0x1F DUP10 AND DUP3 PUSH2 0x850 JUMP JUMPDEST DUP4 SSTORE POP JUMPDEST PUSH1 0x1 PUSH1 0x2 DUP9 MUL ADD DUP9 SSTORE POP POP POP JUMPDEST POP POP POP POP POP POP JUMP JUMPDEST PUSH32 0x4E487B7100000000000000000000000000000000000000000000000000000000 PUSH0 MSTORE PUSH1 0x32 PUSH1 0x4 MSTORE PUSH1 0x24 PUSH0 REVERT JUMPDEST PUSH32 0x4E487B7100000000000000000000000000000000000000000000000000000000 PUSH0 MSTORE PUSH1 0x11 PUSH1 0x4 MSTORE PUSH1 0x24 PUSH0 REVERT JUMPDEST PUSH0 PUSH2 0x9BA DUP3 PUSH2 0x322 JUMP JUMPDEST SWAP2 POP PUSH32 0xFFFFFFFFFFFFFFFFFFFFFFFFFFFFFFFFFFFFFFFFFFFFFFFFFFFFFFFFFFFFFFFF DUP3 SUB PUSH2 0x9EC JUMPI PUSH2 0x9EB PUSH2 0x983 JUMP JUMPDEST JUMPDEST PUSH1 0x1 DUP3 ADD SWAP1 POP SWAP2 SWAP1 POP JUMP INVALID LOG2 PUSH5 0x6970667358 0x22 SLT KECCAK256 PUSH4 0x9F75E6E7 BLOCKHASH NOT 0x2C 0xE2 BYTE DUP5 MUL 0xD2 0xC2 SHR 0xF7 SDIV PUSH16 0xA97A41C00C36A05241C1F6561BD56473 PUSH16 0x6C634300081900330000000000000000 "
				},
				"gasEstimates": {
					"creation": {
						"codeDepositCost": "521000",
						"executionCost": "5559",
						"totalCost": "526559"
					},
					"external": {
						"add(uint256)": "infinite",
						"addNames(string[])": "infinite",
						"break_check()": "infinite",
						"coins()": "2447",
						"letsBreak(uint256)": "infinite",
						"students(uint256)": "infinite"
					}
				},
				"methodIdentifiers": {
					"add(uint256)": "1003e2d2",
					"addNames(string[])": "4e303c60",
					"break_check()": "dfc262c9",
					"coins()": "22fcefbe",
					"letsBreak(uint256)": "e308ae72",
					"students(uint256)": "06ead22e"
				}
			},
			"storageLayout": {
				"storage": [
					{
						"astId": 5,
						"contract": "loops.sol:Blocktrain",
						"label": "students",
						"offset": 0,
						"slot": "0",
						"type": "t_mapping(t_uint256,t_string_storage)"
					},
					{
						"astId": 77,
						"contract": "loops.sol:Blocktrain",
						"label": "coins",
						"offset": 0,
						"slot": "1",
						"type": "t_uint256"
					}
				],
				"types": {
					"t_mapping(t_uint256,t_string_storage)": {
						"encoding": "mapping",
						"key": "t_uint256",
						"label": "mapping(uint256 => string)",
						"numberOfBytes": "32",
						"value": "t_string_storage"
					},
					"t_string_storage": {
						"encoding": "bytes",
						"label": "string",
						"numberOfBytes": "32"
					},
					"t_uint256": {
						"encoding": "inplace",
						"label": "uint256",
						"numberOfBytes": "32"
					}
				}
			},
			"userdoc": {
				"kind": "user",
				"methods": {},
				"version": 1
			}
		}
	}
}